{
  "_format": "hh-sol-artifact-1",
  "contractName": "AlgebraVaultDepositGuard",
  "sourceName": "contracts/AlgebraVaultDepositGuard.sol",
  "abi": [
    {
      "inputs": [
        {
          "internalType": "address",
          "name": "_AlgebraVaultFactory",
          "type": "address"
        },
        {
          "internalType": "address",
          "name": "_WRAPPED_NATIVE",
          "type": "address"
        }
      ],
      "stateMutability": "nonpayable",
      "type": "constructor"
    },
    {
      "anonymous": false,
      "inputs": [
        {
          "indexed": false,
          "internalType": "address",
          "name": "_AlgebraVaultFactory",
          "type": "address"
        },
        {
          "indexed": false,
          "internalType": "address",
          "name": "_WETH",
          "type": "address"
        }
      ],
      "name": "Deployed",
      "type": "event"
    },
    {
      "anonymous": false,
      "inputs": [
        {
          "indexed": true,
          "internalType": "address",
          "name": "sender",
          "type": "address"
        },
        {
          "indexed": true,
          "internalType": "address",
          "name": "vault",
          "type": "address"
        },
        {
          "indexed": true,
          "internalType": "address",
          "name": "token",
          "type": "address"
        },
        {
          "indexed": false,
          "internalType": "uint256",
          "name": "amount",
          "type": "uint256"
        },
        {
          "indexed": false,
          "internalType": "uint256",
          "name": "shares",
          "type": "uint256"
        },
        {
          "indexed": false,
          "internalType": "address",
          "name": "to",
          "type": "address"
        }
      ],
      "name": "DepositForwarded",
      "type": "event"
    },
    {
      "inputs": [],
      "name": "AlgebraVaultFactory",
      "outputs": [
        {
          "internalType": "address",
          "name": "",
          "type": "address"
        }
      ],
      "stateMutability": "view",
      "type": "function"
    },
    {
      "inputs": [],
      "name": "WRAPPED_NATIVE",
      "outputs": [
        {
          "internalType": "address",
          "name": "",
          "type": "address"
        }
      ],
      "stateMutability": "view",
      "type": "function"
    },
    {
      "inputs": [
        {
          "internalType": "address",
          "name": "vault",
          "type": "address"
        },
        {
          "internalType": "address",
          "name": "vaultDeployer",
          "type": "address"
        },
        {
          "internalType": "address",
          "name": "token",
          "type": "address"
        },
        {
          "internalType": "uint256",
          "name": "amount",
          "type": "uint256"
        },
        {
          "internalType": "uint256",
          "name": "minimumProceeds",
          "type": "uint256"
        },
        {
          "internalType": "address",
          "name": "to",
          "type": "address"
        }
      ],
      "name": "forwardDepositToAlgebraVault",
      "outputs": [
        {
          "internalType": "uint256",
          "name": "vaultTokens",
          "type": "uint256"
        }
      ],
      "stateMutability": "nonpayable",
      "type": "function"
    },
    {
      "inputs": [
        {
          "internalType": "address",
          "name": "vault",
          "type": "address"
        },
        {
          "internalType": "address",
          "name": "vaultDeployer",
          "type": "address"
        },
        {
          "internalType": "uint256",
          "name": "minimumProceeds",
          "type": "uint256"
        },
        {
          "internalType": "address",
          "name": "to",
          "type": "address"
        }
      ],
      "name": "forwardNativeDepositToAlgebraVault",
      "outputs": [
        {
          "internalType": "uint256",
          "name": "vaultTokens",
          "type": "uint256"
        }
      ],
      "stateMutability": "payable",
      "type": "function"
    },
    {
      "inputs": [
        {
          "internalType": "address",
          "name": "vault",
          "type": "address"
        },
        {
          "internalType": "address",
          "name": "vaultDeployer",
          "type": "address"
        },
        {
          "internalType": "uint256",
          "name": "shares",
          "type": "uint256"
        },
        {
          "internalType": "address",
          "name": "to",
          "type": "address"
        },
        {
          "internalType": "uint256",
          "name": "minAmount0",
          "type": "uint256"
        },
        {
          "internalType": "uint256",
          "name": "minAmount1",
          "type": "uint256"
        }
      ],
      "name": "forwardNativeWithdrawFromAlgebraVault",
      "outputs": [
        {
          "internalType": "uint256",
          "name": "amount0",
          "type": "uint256"
        },
        {
          "internalType": "uint256",
          "name": "amount1",
          "type": "uint256"
        }
      ],
      "stateMutability": "nonpayable",
      "type": "function"
    },
    {
      "inputs": [
        {
          "internalType": "address",
          "name": "vault",
          "type": "address"
        },
        {
          "internalType": "address",
          "name": "vaultDeployer",
          "type": "address"
        },
        {
          "internalType": "uint256",
          "name": "shares",
          "type": "uint256"
        },
        {
          "internalType": "address",
          "name": "to",
          "type": "address"
        },
        {
          "internalType": "uint256",
          "name": "minAmount0",
          "type": "uint256"
        },
        {
          "internalType": "uint256",
          "name": "minAmount1",
          "type": "uint256"
        }
      ],
      "name": "forwardWithdrawFromAlgebraVault",
      "outputs": [
        {
          "internalType": "uint256",
          "name": "amount0",
          "type": "uint256"
        },
        {
          "internalType": "uint256",
          "name": "amount1",
          "type": "uint256"
        }
      ],
      "stateMutability": "nonpayable",
      "type": "function"
    },
    {
      "inputs": [
        {
          "internalType": "address",
          "name": "vaultDeployer",
          "type": "address"
        },
        {
          "internalType": "address",
          "name": "token0",
          "type": "address"
        },
        {
          "internalType": "address",
          "name": "token1",
          "type": "address"
        },
        {
          "internalType": "bool",
          "name": "allowToken0",
          "type": "bool"
        },
        {
          "internalType": "bool",
          "name": "allowToken1",
          "type": "bool"
        }
      ],
      "name": "vaultKey",
      "outputs": [
        {
          "internalType": "bytes32",
          "name": "key",
          "type": "bytes32"
        }
      ],
      "stateMutability": "view",
      "type": "function"
    },
    {
      "stateMutability": "payable",
      "type": "receive"
    }
  ],
  "bytecode": "0x60c060405234801561001057600080fd5b50604051620016d1380380620016d183398101604081905261003191610105565b60016000556001600160a01b0382166100905760405162461bcd60e51b815260206004820152601c60248201527f44472e636f6e7374727563746f723a207a65726f206164647265737300000000604482015260640160405180910390fd5b6001600160a01b03828116608081905290821660a08190526040805192835260208301919091527f09e48df7857bd0c1e0d31bb8a85d42cf1874817895f171c917f6ee2cea73ec20910160405180910390a15050610138565b80516001600160a01b038116811461010057600080fd5b919050565b6000806040838503121561011857600080fd5b610121836100e9565b915061012f602084016100e9565b90509250929050565b60805160a05161152f620001a2600039600081816084015281816101d10152818161031801528181610391015281816108b9015281816108f8015281816109c201528181610c630152610c9e01526000818160ca015281816102650152610de7015261152f6000f3fe6080604052600436106100745760003560e01c8063a836df881161004e578063a836df8814610157578063ad1b57871461018c578063b81695b81461019f578063d999984d146101bf57600080fd5b80633d3fb311146100b857806358f27a7a14610109578063770b24791461013757600080fd5b366100b357336001600160a01b037f000000000000000000000000000000000000000000000000000000000000000016146100b1576100b161120f565b005b600080fd5b3480156100c457600080fd5b506100ec7f000000000000000000000000000000000000000000000000000000000000000081565b6040516001600160a01b0390911681526020015b60405180910390f35b34801561011557600080fd5b5061012961012436600461123a565b6101f3565b604051908152602001610100565b34801561014357600080fd5b506101296101523660046112b8565b610223565b34801561016357600080fd5b50610177610172366004611329565b6102d2565b60408051928352602083019190915201610100565b61012961019a36600461138e565b610307565b3480156101ab57600080fd5b506101776101ba366004611329565b6103cf565b3480156101cb57600080fd5b506100ec7f000000000000000000000000000000000000000000000000000000000000000081565b60006101fd6103ea565b61020d8787878787876000610448565b90506102196001600055565b9695505050505050565b6040516306a5272960e11b81526001600160a01b03868116600483015285811660248301528481166044830152831515606483015282151560848301526000917f000000000000000000000000000000000000000000000000000000000000000090911690630d4a4e529060a401602060405180830381865afa1580156102ae573d6000803e3d6000fd5b505050506040513d601f19601f8201168201806040525081019061021991906113e1565b6000806102dd6103ea565b6102ed88888888888860006107fe565b90925090506102fc6001600055565b965096945050505050565b60006103116103ea565b60003490507f00000000000000000000000000000000000000000000000000000000000000006001600160a01b031663d0e30db0826040518263ffffffff1660e01b81526004016000604051808303818588803b15801561037157600080fd5b505af1158015610385573d6000803e3d6000fd5b50505050506103ba86867f00000000000000000000000000000000000000000000000000000000000000008488886001610448565b9150506103c76001600055565b949350505050565b6000806103da6103ea565b6102ed88888888888860016107fe565b6002600054036104415760405162461bcd60e51b815260206004820152601f60248201527f5265656e7472616e637947756172643a207265656e7472616e742063616c6c0060448201526064015b60405180910390fd5b6002600055565b600061045383610b45565b60008060006104638b8b87610b8b565b925092509250816001600160a01b0316896001600160a01b0316148061049a5750806001600160a01b0316896001600160a01b0316145b6104d65760405162461bcd60e51b815260206004820152600d60248201526c24b73b30b634b2103a37b5b2b760991b6044820152606401610438565b816001600160a01b0316896001600160a01b0316036105a257826001600160a01b0316637f7a1eec6040518163ffffffff1660e01b8152600401602060405180830381865afa15801561052d573d6000803e3d6000fd5b505050506040513d601f19601f8201168201806040525081019061055191906113fa565b61059d5760405162461bcd60e51b815260206004820152601b60248201527f546f6b656e30206465706f73697473206e6f7420616c6c6f77656400000000006044820152606401610438565b610650565b826001600160a01b03166337e41b406040518163ffffffff1660e01b8152600401602060405180830381865afa1580156105e0573d6000803e3d6000fd5b505050506040513d601f19601f8201168201806040525081019061060491906113fa565b6106505760405162461bcd60e51b815260206004820152601b60248201527f546f6b656e31206465706f73697473206e6f7420616c6c6f77656400000000006044820152606401610438565b8461066a5761066a6001600160a01b038a1633308b610ec4565b61067e6001600160a01b038a168c8a610f35565b6000826001600160a01b03168a6001600160a01b0316146106a05760006106a2565b885b90506000826001600160a01b03168b6001600160a01b0316146106c65760006106c8565b895b604051638dbdbe6d60e01b815260048101849052602481018290526001600160a01b038a8116604483015291925090861690638dbdbe6d906064016020604051808303816000875af1158015610722573d6000803e3d6000fd5b505050506040513d601f19601f8201168201806040525081019061074691906113e1565b9550888610156107985760405162461bcd60e51b815260206004820152601e60248201527f536c69707061676520746f6f2067726561742e2054727920616761696e2e00006044820152606401610438565b604080518b8152602081018890526001600160a01b038a811692820192909252818d16918f169033907f425e9f077f9db249ef795bd139f30608e86b0b6c06f049e167ddee551b8c891d9060600160405180910390a45050505050979650505050505050565b60008061080a86610b45565b600080600061081a8c8c88610b8b565b919450925090506108366001600160a01b038d1633308d610ec4565b8515610a7157604051627b8a6760e11b8152600481018b90523060248201526001600160a01b0384169062f714ce9060440160408051808303816000875af1158015610886573d6000803e3d6000fd5b505050506040513d601f19601f820116820180604052508101906108aa919061141e565b90955093506001600160a01b037f00000000000000000000000000000000000000000000000000000000000000008116908316036109ac57604051632e1a7d4d60e01b8152600481018690527f00000000000000000000000000000000000000000000000000000000000000006001600160a01b031690632e1a7d4d90602401600060405180830381600087803b15801561094457600080fd5b505af1158015610958573d6000803e3d6000fd5b50506040516001600160a01b038c16925087156108fc02915087906000818181858888f19350505050158015610992573d6000803e3d6000fd5b506109a76001600160a01b0382168a86610fe2565b610ae7565b604051632e1a7d4d60e01b8152600481018590527f00000000000000000000000000000000000000000000000000000000000000006001600160a01b031690632e1a7d4d90602401600060405180830381600087803b158015610a0e57600080fd5b505af1158015610a22573d6000803e3d6000fd5b50506040516001600160a01b038c16925086156108fc02915086906000818181858888f19350505050158015610a5c573d6000803e3d6000fd5b506109a76001600160a01b0383168a87610fe2565b604051627b8a6760e11b8152600481018b90526001600160a01b038a8116602483015284169062f714ce9060440160408051808303816000875af1158015610abd573d6000803e3d6000fd5b505050506040513d601f19601f82011682018060405250810190610ae1919061141e565b90955093505b878510158015610af75750868410155b610b365760405162461bcd60e51b815260206004820152601060248201526f125b9cdd59999a58da595b9d081bdd5d60821b6044820152606401610438565b50505097509795505050505050565b6001600160a01b038116610b885760405162461bcd60e51b815260206004820152600a602482015269496e76616c696420746f60b01b6044820152606401610438565b50565b6000806000859250826001600160a01b0316630dfe16816040518163ffffffff1660e01b8152600401602060405180830381865afa158015610bd1573d6000803e3d6000fd5b505050506040513d601f19601f82011682018060405250810190610bf59190611442565b9150826001600160a01b031663d21220a76040518163ffffffff1660e01b8152600401602060405180830381865afa158015610c35573d6000803e3d6000fd5b505050506040513d601f19601f82011682018060405250810190610c599190611442565b90508315610d0d577f00000000000000000000000000000000000000000000000000000000000000006001600160a01b0316826001600160a01b03161480610cd257507f00000000000000000000000000000000000000000000000000000000000000006001600160a01b0316816001600160a01b0316145b610d0d5760405162461bcd60e51b815260206004820152600c60248201526b13985d1a5d99481d985d5b1d60a21b6044820152606401610438565b6000610dd9868484876001600160a01b0316637f7a1eec6040518163ffffffff1660e01b8152600401602060405180830381865afa158015610d53573d6000803e3d6000fd5b505050506040513d601f19601f82011682018060405250810190610d7791906113fa565b886001600160a01b03166337e41b406040518163ffffffff1660e01b8152600401602060405180830381865afa158015610db5573d6000803e3d6000fd5b505050506040513d601f19601f8201168201806040525081019061015291906113fa565b9050866001600160a01b03167f00000000000000000000000000000000000000000000000000000000000000006001600160a01b031663eda39bb5836040518263ffffffff1660e01b8152600401610e3391815260200190565b602060405180830381865afa158015610e50573d6000803e3d6000fd5b505050506040513d601f19601f82011682018060405250810190610e749190611442565b6001600160a01b031614610eba5760405162461bcd60e51b815260206004820152600d60248201526c125b9d985b1a59081d985d5b1d609a1b6044820152606401610438565b5093509350939050565b6040516001600160a01b0380851660248301528316604482015260648101829052610f2f9085906323b872dd60e01b906084015b60408051601f198184030181529190526020810180516001600160e01b03166001600160e01b031990931692909217909152611017565b50505050565b604051636eb1769f60e11b81523060048201526001600160a01b0383811660248301526000919085169063dd62ed3e90604401602060405180830381865afa158015610f85573d6000803e3d6000fd5b505050506040513d601f19601f82011682018060405250810190610fa991906113e1565b9050610f2f8463095ea7b360e01b85610fc2868661145f565b6040516001600160a01b0390921660248301526044820152606401610ef8565b6040516001600160a01b03831660248201526044810182905261101290849063a9059cbb60e01b90606401610ef8565b505050565b600061106c826040518060400160405280602081526020017f5361666545524332303a206c6f772d6c6576656c2063616c6c206661696c6564815250856001600160a01b03166110ec9092919063ffffffff16565b905080516000148061108d57508080602001905181019061108d91906113fa565b6110125760405162461bcd60e51b815260206004820152602a60248201527f5361666545524332303a204552433230206f7065726174696f6e20646964206e6044820152691bdd081cdd58d8d9595960b21b6064820152608401610438565b60606103c7848460008585600080866001600160a01b0316858760405161111391906114aa565b60006040518083038185875af1925050503d8060008114611150576040519150601f19603f3d011682016040523d82523d6000602084013e611155565b606091505b509150915061116687838387611171565b979650505050505050565b606083156111e05782516000036111d9576001600160a01b0385163b6111d95760405162461bcd60e51b815260206004820152601d60248201527f416464726573733a2063616c6c20746f206e6f6e2d636f6e74726163740000006044820152606401610438565b50816103c7565b6103c783838151156111f55781518083602001fd5b8060405162461bcd60e51b815260040161043891906114c6565b634e487b7160e01b600052600160045260246000fd5b6001600160a01b0381168114610b8857600080fd5b60008060008060008060c0878903121561125357600080fd5b863561125e81611225565b9550602087013561126e81611225565b9450604087013561127e81611225565b9350606087013592506080870135915060a087013561129c81611225565b809150509295509295509295565b8015158114610b8857600080fd5b600080600080600060a086880312156112d057600080fd5b85356112db81611225565b945060208601356112eb81611225565b935060408601356112fb81611225565b9250606086013561130b816112aa565b9150608086013561131b816112aa565b809150509295509295909350565b60008060008060008060c0878903121561134257600080fd5b863561134d81611225565b9550602087013561135d81611225565b945060408701359350606087013561137481611225565b9598949750929560808101359460a0909101359350915050565b600080600080608085870312156113a457600080fd5b84356113af81611225565b935060208501356113bf81611225565b92506040850135915060608501356113d681611225565b939692955090935050565b6000602082840312156113f357600080fd5b5051919050565b60006020828403121561140c57600080fd5b8151611417816112aa565b9392505050565b6000806040838503121561143157600080fd5b505080516020909101519092909150565b60006020828403121561145457600080fd5b815161141781611225565b8082018082111561148057634e487b7160e01b600052601160045260246000fd5b92915050565b60005b838110156114a1578181015183820152602001611489565b50506000910152565b600082516114bc818460208701611486565b9190910192915050565b60208152600082518060208401526114e5816040850160208701611486565b601f01601f1916919091016040019291505056fea26469706673582212206a2b0b3dbbe5965f3f4686d9ee1f81f65e583da50d559bd5f1b1efd94924284264736f6c63430008140033",
  "linkReferences": {},
  "deployedLinkReferences": {}
}