{
  "_format": "hh-sol-artifact-1",
  "contractName": "AlgebraVaultFactory",
  "sourceName": "contracts/AlgebraVaultFactory.sol",
  "abi": [
    {
      "inputs": [
        {
          "internalType": "address",
          "name": "_algebraFactory",
          "type": "address"
        },
        {
          "internalType": "address",
          "name": "_nftManager",
          "type": "address"
        },
        {
          "internalType": "string",
          "name": "_ammName",
          "type": "string"
        }
      ],
      "stateMutability": "nonpayable",
      "type": "constructor"
    },
    {
      "anonymous": false,
      "inputs": [
        {
          "indexed": true,
          "internalType": "address",
          "name": "sender",
          "type": "address"
        },
        {
          "indexed": false,
          "internalType": "address",
          "name": "algebraVault",
          "type": "address"
        },
        {
          "indexed": false,
          "internalType": "address",
          "name": "tokenA",
          "type": "address"
        },
        {
          "indexed": false,
          "internalType": "bool",
          "name": "allowTokenA",
          "type": "bool"
        },
        {
          "indexed": false,
          "internalType": "address",
          "name": "tokenB",
          "type": "address"
        },
        {
          "indexed": false,
          "internalType": "bool",
          "name": "allowTokenB",
          "type": "bool"
        },
        {
          "indexed": false,
          "internalType": "uint256",
          "name": "count",
          "type": "uint256"
        }
      ],
      "name": "AlgebraVaultCreated",
      "type": "event"
    },
    {
      "anonymous": false,
      "inputs": [
        {
          "indexed": true,
          "internalType": "address",
          "name": "sender",
          "type": "address"
        },
        {
          "indexed": false,
          "internalType": "uint256",
          "name": "ammFee",
          "type": "uint256"
        }
      ],
      "name": "AmmFee",
      "type": "event"
    },
    {
      "anonymous": false,
      "inputs": [
        {
          "indexed": true,
          "internalType": "address",
          "name": "sender",
          "type": "address"
        },
        {
          "indexed": false,
          "internalType": "uint256",
          "name": "baseFee",
          "type": "uint256"
        }
      ],
      "name": "BaseFee",
      "type": "event"
    },
    {
      "anonymous": false,
      "inputs": [
        {
          "indexed": true,
          "internalType": "address",
          "name": "sender",
          "type": "address"
        },
        {
          "indexed": false,
          "internalType": "uint256",
          "name": "baseFeeSplit",
          "type": "uint256"
        }
      ],
      "name": "BaseFeeSplit",
      "type": "event"
    },
    {
      "anonymous": false,
      "inputs": [
        {
          "indexed": true,
          "internalType": "address",
          "name": "sender",
          "type": "address"
        },
        {
          "indexed": false,
          "internalType": "address",
          "name": "algebraFactory",
          "type": "address"
        }
      ],
      "name": "DeployAlgebraVaultFactory",
      "type": "event"
    },
    {
      "anonymous": false,
      "inputs": [
        {
          "indexed": true,
          "internalType": "address",
          "name": "sender",
          "type": "address"
        },
        {
          "indexed": false,
          "internalType": "address",
          "name": "feeRecipient",
          "type": "address"
        }
      ],
      "name": "FeeRecipient",
      "type": "event"
    },
    {
      "anonymous": false,
      "inputs": [
        {
          "indexed": true,
          "internalType": "address",
          "name": "previousOwner",
          "type": "address"
        },
        {
          "indexed": true,
          "internalType": "address",
          "name": "newOwner",
          "type": "address"
        }
      ],
      "name": "OwnershipTransferred",
      "type": "event"
    },
    {
      "inputs": [],
      "name": "algebraFactory",
      "outputs": [
        {
          "internalType": "address",
          "name": "",
          "type": "address"
        }
      ],
      "stateMutability": "view",
      "type": "function"
    },
    {
      "inputs": [
        {
          "internalType": "uint256",
          "name": "",
          "type": "uint256"
        }
      ],
      "name": "allVaults",
      "outputs": [
        {
          "internalType": "address",
          "name": "",
          "type": "address"
        }
      ],
      "stateMutability": "view",
      "type": "function"
    },
    {
      "inputs": [],
      "name": "ammFee",
      "outputs": [
        {
          "internalType": "uint256",
          "name": "",
          "type": "uint256"
        }
      ],
      "stateMutability": "view",
      "type": "function"
    },
    {
      "inputs": [],
      "name": "ammName",
      "outputs": [
        {
          "internalType": "string",
          "name": "",
          "type": "string"
        }
      ],
      "stateMutability": "view",
      "type": "function"
    },
    {
      "inputs": [],
      "name": "baseFee",
      "outputs": [
        {
          "internalType": "uint256",
          "name": "",
          "type": "uint256"
        }
      ],
      "stateMutability": "view",
      "type": "function"
    },
    {
      "inputs": [],
      "name": "baseFeeSplit",
      "outputs": [
        {
          "internalType": "uint256",
          "name": "",
          "type": "uint256"
        }
      ],
      "stateMutability": "view",
      "type": "function"
    },
    {
      "inputs": [
        {
          "internalType": "address",
          "name": "tokenA",
          "type": "address"
        },
        {
          "internalType": "bool",
          "name": "allowTokenA",
          "type": "bool"
        },
        {
          "internalType": "address",
          "name": "tokenB",
          "type": "address"
        },
        {
          "internalType": "bool",
          "name": "allowTokenB",
          "type": "bool"
        }
      ],
      "name": "createAlgebraVault",
      "outputs": [
        {
          "internalType": "address",
          "name": "algebraVault",
          "type": "address"
        }
      ],
      "stateMutability": "nonpayable",
      "type": "function"
    },
    {
      "inputs": [],
      "name": "feeRecipient",
      "outputs": [
        {
          "internalType": "address",
          "name": "",
          "type": "address"
        }
      ],
      "stateMutability": "view",
      "type": "function"
    },
    {
      "inputs": [
        {
          "internalType": "address",
          "name": "deployer",
          "type": "address"
        },
        {
          "internalType": "address",
          "name": "token0",
          "type": "address"
        },
        {
          "internalType": "address",
          "name": "token1",
          "type": "address"
        },
        {
          "internalType": "bool",
          "name": "allowToken0",
          "type": "bool"
        },
        {
          "internalType": "bool",
          "name": "allowToken1",
          "type": "bool"
        }
      ],
      "name": "genKey",
      "outputs": [
        {
          "internalType": "bytes32",
          "name": "key",
          "type": "bytes32"
        }
      ],
      "stateMutability": "pure",
      "type": "function"
    },
    {
      "inputs": [
        {
          "internalType": "bytes32",
          "name": "",
          "type": "bytes32"
        }
      ],
      "name": "getAlgebraVault",
      "outputs": [
        {
          "internalType": "address",
          "name": "",
          "type": "address"
        }
      ],
      "stateMutability": "view",
      "type": "function"
    },
    {
      "inputs": [],
      "name": "nftManager",
      "outputs": [
        {
          "internalType": "address",
          "name": "",
          "type": "address"
        }
      ],
      "stateMutability": "view",
      "type": "function"
    },
    {
      "inputs": [],
      "name": "owner",
      "outputs": [
        {
          "internalType": "address",
          "name": "",
          "type": "address"
        }
      ],
      "stateMutability": "view",
      "type": "function"
    },
    {
      "inputs": [],
      "name": "renounceOwnership",
      "outputs": [],
      "stateMutability": "nonpayable",
      "type": "function"
    },
    {
      "inputs": [
        {
          "internalType": "uint256",
          "name": "_ammFee",
          "type": "uint256"
        }
      ],
      "name": "setAmmFee",
      "outputs": [],
      "stateMutability": "nonpayable",
      "type": "function"
    },
    {
      "inputs": [
        {
          "internalType": "uint256",
          "name": "_baseFee",
          "type": "uint256"
        }
      ],
      "name": "setBaseFee",
      "outputs": [],
      "stateMutability": "nonpayable",
      "type": "function"
    },
    {
      "inputs": [
        {
          "internalType": "uint256",
          "name": "_baseFeeSplit",
          "type": "uint256"
        }
      ],
      "name": "setBaseFeeSplit",
      "outputs": [],
      "stateMutability": "nonpayable",
      "type": "function"
    },
    {
      "inputs": [
        {
          "internalType": "address",
          "name": "_feeRecipient",
          "type": "address"
        }
      ],
      "name": "setFeeRecipient",
      "outputs": [],
      "stateMutability": "nonpayable",
      "type": "function"
    },
    {
      "inputs": [
        {
          "internalType": "address",
          "name": "newOwner",
          "type": "address"
        }
      ],
      "name": "transferOwnership",
      "outputs": [],
      "stateMutability": "nonpayable",
      "type": "function"
    }
  ],
  "bytecode": "0x60c06040523480156200001157600080fd5b5060405162001545380380620015458339810160408190526200003491620001d4565b600160005562000044336200014f565b6001600160a01b038316158015906200006557506001600160a01b03821615155b620000b65760405162461bcd60e51b815260206004820152601d60248201527f4156462e636f6e7374727563746f723a207a65726f2061646472657373000000604482015260640160405180910390fd5b6001600160a01b03808416608052821660a0526002620000d782826200035d565b50600380546001600160a01b0319163390811790915560006004556702c68af0bb1400006005556706f05b59d3b200006006556040516001600160a01b03851681527f46c63d7c4fa32e1ef04d31eb3568cce9c9fa6ff99793e15aed7968095553c4d69060200160405180910390a250505062000429565b600180546001600160a01b038381166001600160a01b0319831681179093556040519116919082907f8be0079c531659141344cd1fd0a4f28419497f9722a3daafe3b4186f6b6457e090600090a35050565b80516001600160a01b0381168114620001b957600080fd5b919050565b634e487b7160e01b600052604160045260246000fd5b600080600060608486031215620001ea57600080fd5b620001f584620001a1565b9250602062000206818601620001a1565b60408601519093506001600160401b03808211156200022457600080fd5b818701915087601f8301126200023957600080fd5b8151818111156200024e576200024e620001be565b604051601f8201601f19908116603f01168101908382118183101715620002795762000279620001be565b816040528281528a868487010111156200029257600080fd5b600093505b82841015620002b6578484018601518185018701529285019262000297565b60008684830101528096505050505050509250925092565b600181811c90821680620002e357607f821691505b6020821081036200030457634e487b7160e01b600052602260045260246000fd5b50919050565b601f8211156200035857600081815260208120601f850160051c81016020861015620003335750805b601f850160051c820191505b8181101562000354578281556001016200033f565b5050505b505050565b81516001600160401b03811115620003795762000379620001be565b62000391816200038a8454620002ce565b846200030a565b602080601f831160018114620003c95760008415620003b05750858301515b600019600386901b1c1916600185901b17855562000354565b600085815260208120601f198616915b82811015620003fa57888601518255948401946001909101908401620003d9565b5085821015620004195787850151600019600388901b60f8161c191681555b5050505050600190811b01905550565b60805160a0516110ef6200045660003960006102550152600081816101ff015261084f01526110ef6000f3fe608060405234801561001057600080fd5b50600436106101165760003560e01c80638f43ee24116100a2578063d24bf9f311610071578063d24bf9f31461022a578063e74b981b1461023d578063e88b91ea14610250578063eda39bb514610277578063f2fde38b146102a057600080fd5b80638f43ee24146101d45780639094a91e146101e7578063a7b64b04146101fa578063acc8247d1461022157600080fd5b806354a88073116100e957806354a8807314610196578063665a17c5146101a95780636ef25c3a146101b2578063715018a6146101bb5780638da5cb5b146101c357600080fd5b80630d4a4e521461011b57806315345a00146101415780634686069814610156578063469048401461016b575b600080fd5b61012e610129366004610e46565b6102b3565b6040519081526020015b60405180910390f35b61014961031b565b6040516101389190610eb7565b610169610164366004610f05565b6103a9565b005b60035461017e906001600160a01b031681565b6040516001600160a01b039091168152602001610138565b6101696101a4366004610f05565b610468565b61012e60045481565b61012e60055481565b61016961051a565b6001546001600160a01b031661017e565b6101696101e2366004610f05565b61052e565b61017e6101f5366004610f05565b6105d4565b61017e7f000000000000000000000000000000000000000000000000000000000000000081565b61012e60065481565b61017e610238366004610f1e565b6105fe565b61016961024b366004610f7a565b610bd8565b61017e7f000000000000000000000000000000000000000000000000000000000000000081565b61017e610285366004610f05565b6007602052600090815260409020546001600160a01b031681565b6101696102ae366004610f7a565b610c90565b604080516bffffffffffffffffffffffff19606097881b811660208084019190915296881b811660348301529490961b909316604886015290151560f890811b605c860152901515901b605d8401528051808403603e018152605e9093019052815191012090565b6002805461032890610f9e565b80601f016020809104026020016040519081016040528092919081815260200182805461035490610f9e565b80156103a15780601f10610376576101008083540402835291602001916103a1565b820191906000526020600020905b81548152906001019060200180831161038457829003601f168201915b505050505081565b6103b1610d09565b600454670de0b6b3a7640000906103c89083610d63565b111561042a5760405162461bcd60e51b815260206004820152602660248201527f4156462e736574426173654665653a2066656573206d757374206265203c3d2060448201526506260545462760d31b60648201526084015b60405180910390fd5b600581905560405181815233907f3eebe58c525adbccc2701122aa3f72afe1db9f1eaeb6f20c7500332042d3d0ae906020015b60405180910390a250565b610470610d09565b600554670de0b6b3a7640000906104879083610d63565b11156104e35760405162461bcd60e51b815260206004820152602560248201527f4156462e736574416d6d4665653a2066656573206d757374206265203c3d2031604482015264060545462760db1b6064820152608401610421565b600481905560405181815233907fbab3d5a1afa9cf183465773f045bb703420b716528d2cc0ded25b14c9cbf789f9060200161045d565b610522610d09565b61052c6000610d78565b565b610536610d09565b670de0b6b3a764000081111561059d5760405162461bcd60e51b815260206004820152602660248201527f4156462e7365744261736546656553706c69743a206d757374206265203c3d2060448201526506260545462760d31b6064820152608401610421565b600681905560405181815233907ff23c377b67694a17208802cc028e3c91e1a9bbebb5c14cc17d6cea366374b4579060200161045d565b600881815481106105e457600080fd5b6000918252602090912001546001600160a01b0316905081565b6000610608610d09565b610610610dca565b826001600160a01b0316856001600160a01b0316036106825760405162461bcd60e51b815260206004820152602860248201527f4156462e637265617465416c67656272615661756c743a206964656e746963616044820152676c20746f6b656e7360c01b6064820152608401610421565b600080846001600160a01b0316876001600160a01b0316106106a55784876106a8565b86855b91509150600080866001600160a01b0316896001600160a01b0316106106cf5785886106d2565b87865b90925090506001600160a01b0384166107395760405162461bcd60e51b8152602060048201526024808201527f4156462e637265617465416c67656272615661756c743a207a65726f206164646044820152637265737360e01b6064820152608401610421565b87806107425750855b6107a05760405162461bcd60e51b815260206004820152602960248201527f4156462e637265617465416c67656272615661756c743a206e6f20616c6c6f77604482015268656420746f6b656e7360b81b6064820152608401610421565b60006007816107b233888888886102b3565b81526020810191909152604001600020546001600160a01b0316146108255760405162461bcd60e51b8152602060048201526024808201527f4156462e637265617465416c67656272615661756c743a207661756c742065786044820152636973747360e01b6064820152608401610421565b60405163d9a641e160e01b81526001600160a01b038a8116600483015288811660248301526000917f00000000000000000000000000000000000000000000000000000000000000009091169063d9a641e190604401602060405180830381865afa158015610898573d6000803e3d6000fd5b505050506040513d601f19601f820116820180604052508101906108bc9190610fd8565b90506001600160a01b0381166109245760405162461bcd60e51b815260206004820152602760248201527f4156462e637265617465416c67656272615661756c743a20706f6f6c206d75736044820152661d08195e1a5cdd60ca1b6064820152608401610421565b6000816001600160a01b031663e76c01e46040518163ffffffff1660e01b815260040160c060405180830381865afa158015610964573d6000803e3d6000fd5b505050506040513d601f19601f82011682018060405250810190610988919061100c565b95505050505050806109eb5760405162461bcd60e51b815260206004820152602660248201527f4156462e637265617465416c67656272615661756c743a20706f6f6c206973206044820152651b1bd8dad95960d21b6064820152608401610421565b6008546040516324bff21760e11b81526001600160a01b03808516600483015280891660248301528615156044830152871660648201528415156084820152610e1060a482015260c481019190915273__$085229d3c76ee427100454565d0af1d8fb$__9063497fe42e9060e401602060405180830381865af4158015610a76573d6000803e3d6000fd5b505050506040513d601f19601f82011682018060405250810190610a9a9190610fd8565b96508660076000610aae338a8a8a8a6102b3565b815260200190815260200160002060006101000a8154816001600160a01b0302191690836001600160a01b031602179055508660076000610af233898b898b6102b3565b81526020808201929092526040908101600090812080546001600160a01b039586166001600160a01b03199182161790915560088054600181018255928190527ff3f7a9fe364faab93b216da50a3214154f22a0a2b415b23a84c8169e8b636ee390920180548d8716921682179055905482519182528a851693820193909352871515918101919091529187166060830152841515608083015260a082015233907f71da1e61f724914e2ead68f0f90a4a537e293056eef79b16ccd6151777280c239060c00160405180910390a2505050505050610bd06001600055565b949350505050565b610be0610d09565b6001600160a01b038116610c405760405162461bcd60e51b815260206004820152602160248201527f4156462e736574466565526563697069656e743a207a65726f206164647265736044820152607360f81b6064820152608401610421565b600380546001600160a01b0319166001600160a01b03831690811790915560405190815233907fa3c35be2df207ef65dd1fa9d8feba470160e2a6d259f30f2ed070c69b7ec45769060200161045d565b610c98610d09565b6001600160a01b038116610cfd5760405162461bcd60e51b815260206004820152602660248201527f4f776e61626c653a206e6577206f776e657220697320746865207a65726f206160448201526564647265737360d01b6064820152608401610421565b610d0681610d78565b50565b6001546001600160a01b0316331461052c5760405162461bcd60e51b815260206004820181905260248201527f4f776e61626c653a2063616c6c6572206973206e6f7420746865206f776e65726044820152606401610421565b6000610d6f8284611098565b90505b92915050565b600180546001600160a01b038381166001600160a01b0319831681179093556040519116919082907f8be0079c531659141344cd1fd0a4f28419497f9722a3daafe3b4186f6b6457e090600090a35050565b600260005403610e1c5760405162461bcd60e51b815260206004820152601f60248201527f5265656e7472616e637947756172643a207265656e7472616e742063616c6c006044820152606401610421565b6002600055565b6001600160a01b0381168114610d0657600080fd5b8015158114610d0657600080fd5b600080600080600060a08688031215610e5e57600080fd5b8535610e6981610e23565b94506020860135610e7981610e23565b93506040860135610e8981610e23565b92506060860135610e9981610e38565b91506080860135610ea981610e38565b809150509295509295909350565b600060208083528351808285015260005b81811015610ee457858101830151858201604001528201610ec8565b506000604082860101526040601f19601f8301168501019250505092915050565b600060208284031215610f1757600080fd5b5035919050565b60008060008060808587031215610f3457600080fd5b8435610f3f81610e23565b93506020850135610f4f81610e38565b92506040850135610f5f81610e23565b91506060850135610f6f81610e38565b939692955090935050565b600060208284031215610f8c57600080fd5b8135610f9781610e23565b9392505050565b600181811c90821680610fb257607f821691505b602082108103610fd257634e487b7160e01b600052602260045260246000fd5b50919050565b600060208284031215610fea57600080fd5b8151610f9781610e23565b805161ffff8116811461100757600080fd5b919050565b60008060008060008060c0878903121561102557600080fd5b865161103081610e23565b8096505060208701518060020b811461104857600080fd5b945061105660408801610ff5565b9350606087015160ff8116811461106c57600080fd5b925061107a60808801610ff5565b915060a087015161108a81610e38565b809150509295509295509295565b80820180821115610d7257634e487b7160e01b600052601160045260246000fdfea2646970667358221220e9f36a04d2c34a96c830f0a099664fe0e9e5ceb201f91d08b324924428f398f664736f6c63430008140033",
  "linkReferences": {
    "contracts/lib/AlgebraVaultDeployer.sol": {
      "AlgebraVaultDeployer": [
        {
          "length": 20,
          "start": 3730
        }
      ]
    }
  },
  "deployedLinkReferences": {
    "contracts/lib/AlgebraVaultDeployer.sol": {
      "AlgebraVaultDeployer": [
        {
          "length": 20,
          "start": 2620
        }
      ]
    }
  }
}