{
  "_format": "hh-sol-artifact-1",
  "contractName": "AlgebraVault",
  "sourceName": "contracts/AlgebraVault.sol",
  "abi": [
    {
      "inputs": [
        {
          "internalType": "address",
          "name": "_pool",
          "type": "address"
        },
        {
          "internalType": "bool",
          "name": "_allowToken0",
          "type": "bool"
        },
        {
          "internalType": "bool",
          "name": "_allowToken1",
          "type": "bool"
        },
        {
          "internalType": "address",
          "name": "__owner",
          "type": "address"
        },
        {
          "internalType": "uint32",
          "name": "_twapPeriod",
          "type": "uint32"
        },
        {
          "internalType": "uint256",
          "name": "_vaultIndex",
          "type": "uint256"
        }
      ],
      "stateMutability": "nonpayable",
      "type": "constructor"
    },
    {
      "anonymous": false,
      "inputs": [
        {
          "indexed": true,
          "internalType": "address",
          "name": "sender",
          "type": "address"
        },
        {
          "indexed": false,
          "internalType": "address",
          "name": "affiliate",
          "type": "address"
        }
      ],
      "name": "Affiliate",
      "type": "event"
    },
    {
      "anonymous": false,
      "inputs": [
        {
          "indexed": true,
          "internalType": "address",
          "name": "sender",
          "type": "address"
        },
        {
          "indexed": false,
          "internalType": "address",
          "name": "ammFeeRecipient",
          "type": "address"
        }
      ],
      "name": "AmmFeeRecipient",
      "type": "event"
    },
    {
      "anonymous": false,
      "inputs": [
        {
          "indexed": true,
          "internalType": "address",
          "name": "owner",
          "type": "address"
        },
        {
          "indexed": true,
          "internalType": "address",
          "name": "spender",
          "type": "address"
        },
        {
          "indexed": false,
          "internalType": "uint256",
          "name": "value",
          "type": "uint256"
        }
      ],
      "name": "Approval",
      "type": "event"
    },
    {
      "anonymous": false,
      "inputs": [
        {
          "indexed": true,
          "internalType": "address",
          "name": "sender",
          "type": "address"
        },
        {
          "indexed": false,
          "internalType": "uint256",
          "name": "feeAmount0",
          "type": "uint256"
        },
        {
          "indexed": false,
          "internalType": "uint256",
          "name": "feeAmount1",
          "type": "uint256"
        }
      ],
      "name": "CollectFees",
      "type": "event"
    },
    {
      "anonymous": false,
      "inputs": [
        {
          "indexed": true,
          "internalType": "address",
          "name": "sender",
          "type": "address"
        },
        {
          "indexed": true,
          "internalType": "address",
          "name": "pool",
          "type": "address"
        },
        {
          "indexed": false,
          "internalType": "bool",
          "name": "allowToken0",
          "type": "bool"
        },
        {
          "indexed": false,
          "internalType": "bool",
          "name": "allowToken1",
          "type": "bool"
        },
        {
          "indexed": false,
          "internalType": "address",
          "name": "owner",
          "type": "address"
        },
        {
          "indexed": false,
          "internalType": "uint256",
          "name": "twapPeriod",
          "type": "uint256"
        }
      ],
      "name": "DeployAlgebraVault",
      "type": "event"
    },
    {
      "anonymous": false,
      "inputs": [
        {
          "indexed": true,
          "internalType": "address",
          "name": "sender",
          "type": "address"
        },
        {
          "indexed": true,
          "internalType": "address",
          "name": "to",
          "type": "address"
        },
        {
          "indexed": false,
          "internalType": "uint256",
          "name": "shares",
          "type": "uint256"
        },
        {
          "indexed": false,
          "internalType": "uint256",
          "name": "amount0",
          "type": "uint256"
        },
        {
          "indexed": false,
          "internalType": "uint256",
          "name": "amount1",
          "type": "uint256"
        }
      ],
      "name": "Deposit",
      "type": "event"
    },
    {
      "anonymous": false,
      "inputs": [
        {
          "indexed": true,
          "internalType": "address",
          "name": "sender",
          "type": "address"
        },
        {
          "indexed": false,
          "internalType": "uint256",
          "name": "deposit0Max",
          "type": "uint256"
        },
        {
          "indexed": false,
          "internalType": "uint256",
          "name": "deposit1Max",
          "type": "uint256"
        }
      ],
      "name": "DepositMax",
      "type": "event"
    },
    {
      "anonymous": false,
      "inputs": [
        {
          "indexed": true,
          "internalType": "address",
          "name": "sender",
          "type": "address"
        },
        {
          "indexed": false,
          "internalType": "uint256",
          "name": "hysteresis",
          "type": "uint256"
        }
      ],
      "name": "Hysteresis",
      "type": "event"
    },
    {
      "anonymous": false,
      "inputs": [
        {
          "indexed": true,
          "internalType": "address",
          "name": "previousOwner",
          "type": "address"
        },
        {
          "indexed": true,
          "internalType": "address",
          "name": "newOwner",
          "type": "address"
        }
      ],
      "name": "OwnershipTransferred",
      "type": "event"
    },
    {
      "anonymous": false,
      "inputs": [
        {
          "indexed": false,
          "internalType": "int24",
          "name": "tick",
          "type": "int24"
        },
        {
          "indexed": false,
          "internalType": "uint256",
          "name": "totalAmount0",
          "type": "uint256"
        },
        {
          "indexed": false,
          "internalType": "uint256",
          "name": "totalAmount1",
          "type": "uint256"
        },
        {
          "indexed": false,
          "internalType": "uint256",
          "name": "feeAmount0",
          "type": "uint256"
        },
        {
          "indexed": false,
          "internalType": "uint256",
          "name": "feeAmount1",
          "type": "uint256"
        },
        {
          "indexed": false,
          "internalType": "uint256",
          "name": "totalSupply",
          "type": "uint256"
        }
      ],
      "name": "Rebalance",
      "type": "event"
    },
    {
      "anonymous": false,
      "inputs": [
        {
          "indexed": false,
          "internalType": "address",
          "name": "sender",
          "type": "address"
        },
        {
          "indexed": false,
          "internalType": "uint32",
          "name": "newAuxTwapPeriod",
          "type": "uint32"
        }
      ],
      "name": "SetAuxTwapPeriod",
      "type": "event"
    },
    {
      "anonymous": false,
      "inputs": [
        {
          "indexed": false,
          "internalType": "address",
          "name": "sender",
          "type": "address"
        },
        {
          "indexed": false,
          "internalType": "uint32",
          "name": "newTwapPeriod",
          "type": "uint32"
        }
      ],
      "name": "SetTwapPeriod",
      "type": "event"
    },
    {
      "anonymous": false,
      "inputs": [
        {
          "indexed": true,
          "internalType": "address",
          "name": "from",
          "type": "address"
        },
        {
          "indexed": true,
          "internalType": "address",
          "name": "to",
          "type": "address"
        },
        {
          "indexed": false,
          "internalType": "uint256",
          "name": "value",
          "type": "uint256"
        }
      ],
      "name": "Transfer",
      "type": "event"
    },
    {
      "anonymous": false,
      "inputs": [
        {
          "indexed": true,
          "internalType": "address",
          "name": "sender",
          "type": "address"
        },
        {
          "indexed": true,
          "internalType": "address",
          "name": "to",
          "type": "address"
        },
        {
          "indexed": false,
          "internalType": "uint256",
          "name": "shares",
          "type": "uint256"
        },
        {
          "indexed": false,
          "internalType": "uint256",
          "name": "amount0",
          "type": "uint256"
        },
        {
          "indexed": false,
          "internalType": "uint256",
          "name": "amount1",
          "type": "uint256"
        }
      ],
      "name": "Withdraw",
      "type": "event"
    },
    {
      "inputs": [],
      "name": "PRECISION",
      "outputs": [
        {
          "internalType": "uint256",
          "name": "",
          "type": "uint256"
        }
      ],
      "stateMutability": "view",
      "type": "function"
    },
    {
      "inputs": [],
      "name": "affiliate",
      "outputs": [
        {
          "internalType": "address",
          "name": "",
          "type": "address"
        }
      ],
      "stateMutability": "view",
      "type": "function"
    },
    {
      "inputs": [
        {
          "internalType": "int256",
          "name": "amount0Delta",
          "type": "int256"
        },
        {
          "internalType": "int256",
          "name": "amount1Delta",
          "type": "int256"
        },
        {
          "internalType": "bytes",
          "name": "data",
          "type": "bytes"
        }
      ],
      "name": "algebraSwapCallback",
      "outputs": [],
      "stateMutability": "nonpayable",
      "type": "function"
    },
    {
      "inputs": [],
      "name": "algebraVaultFactory",
      "outputs": [
        {
          "internalType": "address",
          "name": "",
          "type": "address"
        }
      ],
      "stateMutability": "view",
      "type": "function"
    },
    {
      "inputs": [],
      "name": "allowToken0",
      "outputs": [
        {
          "internalType": "bool",
          "name": "",
          "type": "bool"
        }
      ],
      "stateMutability": "view",
      "type": "function"
    },
    {
      "inputs": [],
      "name": "allowToken1",
      "outputs": [
        {
          "internalType": "bool",
          "name": "",
          "type": "bool"
        }
      ],
      "stateMutability": "view",
      "type": "function"
    },
    {
      "inputs": [
        {
          "internalType": "address",
          "name": "owner",
          "type": "address"
        },
        {
          "internalType": "address",
          "name": "spender",
          "type": "address"
        }
      ],
      "name": "allowance",
      "outputs": [
        {
          "internalType": "uint256",
          "name": "",
          "type": "uint256"
        }
      ],
      "stateMutability": "view",
      "type": "function"
    },
    {
      "inputs": [],
      "name": "ammFeeRecipient",
      "outputs": [
        {
          "internalType": "address",
          "name": "",
          "type": "address"
        }
      ],
      "stateMutability": "view",
      "type": "function"
    },
    {
      "inputs": [
        {
          "internalType": "address",
          "name": "spender",
          "type": "address"
        },
        {
          "internalType": "uint256",
          "name": "amount",
          "type": "uint256"
        }
      ],
      "name": "approve",
      "outputs": [
        {
          "internalType": "bool",
          "name": "",
          "type": "bool"
        }
      ],
      "stateMutability": "nonpayable",
      "type": "function"
    },
    {
      "inputs": [],
      "name": "auxTwapPeriod",
      "outputs": [
        {
          "internalType": "uint32",
          "name": "",
          "type": "uint32"
        }
      ],
      "stateMutability": "view",
      "type": "function"
    },
    {
      "inputs": [
        {
          "internalType": "address",
          "name": "account",
          "type": "address"
        }
      ],
      "name": "balanceOf",
      "outputs": [
        {
          "internalType": "uint256",
          "name": "",
          "type": "uint256"
        }
      ],
      "stateMutability": "view",
      "type": "function"
    },
    {
      "inputs": [],
      "name": "baseLower",
      "outputs": [
        {
          "internalType": "int24",
          "name": "",
          "type": "int24"
        }
      ],
      "stateMutability": "view",
      "type": "function"
    },
    {
      "inputs": [],
      "name": "basePositionId",
      "outputs": [
        {
          "internalType": "uint256",
          "name": "",
          "type": "uint256"
        }
      ],
      "stateMutability": "view",
      "type": "function"
    },
    {
      "inputs": [],
      "name": "baseUpper",
      "outputs": [
        {
          "internalType": "int24",
          "name": "",
          "type": "int24"
        }
      ],
      "stateMutability": "view",
      "type": "function"
    },
    {
      "inputs": [],
      "name": "collectFees",
      "outputs": [
        {
          "internalType": "uint256",
          "name": "fees0",
          "type": "uint256"
        },
        {
          "internalType": "uint256",
          "name": "fees1",
          "type": "uint256"
        }
      ],
      "stateMutability": "nonpayable",
      "type": "function"
    },
    {
      "inputs": [],
      "name": "currentTick",
      "outputs": [
        {
          "internalType": "int24",
          "name": "tick",
          "type": "int24"
        }
      ],
      "stateMutability": "view",
      "type": "function"
    },
    {
      "inputs": [],
      "name": "decimals",
      "outputs": [
        {
          "internalType": "uint8",
          "name": "",
          "type": "uint8"
        }
      ],
      "stateMutability": "view",
      "type": "function"
    },
    {
      "inputs": [
        {
          "internalType": "address",
          "name": "spender",
          "type": "address"
        },
        {
          "internalType": "uint256",
          "name": "subtractedValue",
          "type": "uint256"
        }
      ],
      "name": "decreaseAllowance",
      "outputs": [
        {
          "internalType": "bool",
          "name": "",
          "type": "bool"
        }
      ],
      "stateMutability": "nonpayable",
      "type": "function"
    },
    {
      "inputs": [
        {
          "internalType": "uint256",
          "name": "deposit0",
          "type": "uint256"
        },
        {
          "internalType": "uint256",
          "name": "deposit1",
          "type": "uint256"
        },
        {
          "internalType": "address",
          "name": "to",
          "type": "address"
        }
      ],
      "name": "deposit",
      "outputs": [
        {
          "internalType": "uint256",
          "name": "shares",
          "type": "uint256"
        }
      ],
      "stateMutability": "nonpayable",
      "type": "function"
    },
    {
      "inputs": [],
      "name": "deposit0Max",
      "outputs": [
        {
          "internalType": "uint256",
          "name": "",
          "type": "uint256"
        }
      ],
      "stateMutability": "view",
      "type": "function"
    },
    {
      "inputs": [],
      "name": "deposit1Max",
      "outputs": [
        {
          "internalType": "uint256",
          "name": "",
          "type": "uint256"
        }
      ],
      "stateMutability": "view",
      "type": "function"
    },
    {
      "inputs": [],
      "name": "fee",
      "outputs": [
        {
          "internalType": "uint24",
          "name": "fee_",
          "type": "uint24"
        }
      ],
      "stateMutability": "view",
      "type": "function"
    },
    {
      "inputs": [],
      "name": "getBasePosition",
      "outputs": [
        {
          "internalType": "uint128",
          "name": "liquidity",
          "type": "uint128"
        },
        {
          "internalType": "uint256",
          "name": "amount0",
          "type": "uint256"
        },
        {
          "internalType": "uint256",
          "name": "amount1",
          "type": "uint256"
        }
      ],
      "stateMutability": "view",
      "type": "function"
    },
    {
      "inputs": [],
      "name": "getLimitPosition",
      "outputs": [
        {
          "internalType": "uint128",
          "name": "liquidity",
          "type": "uint128"
        },
        {
          "internalType": "uint256",
          "name": "amount0",
          "type": "uint256"
        },
        {
          "internalType": "uint256",
          "name": "amount1",
          "type": "uint256"
        }
      ],
      "stateMutability": "view",
      "type": "function"
    },
    {
      "inputs": [],
      "name": "getTotalAmounts",
      "outputs": [
        {
          "internalType": "uint256",
          "name": "total0",
          "type": "uint256"
        },
        {
          "internalType": "uint256",
          "name": "total1",
          "type": "uint256"
        }
      ],
      "stateMutability": "view",
      "type": "function"
    },
    {
      "inputs": [],
      "name": "hysteresis",
      "outputs": [
        {
          "internalType": "uint256",
          "name": "",
          "type": "uint256"
        }
      ],
      "stateMutability": "view",
      "type": "function"
    },
    {
      "inputs": [
        {
          "internalType": "address",
          "name": "spender",
          "type": "address"
        },
        {
          "internalType": "uint256",
          "name": "addedValue",
          "type": "uint256"
        }
      ],
      "name": "increaseAllowance",
      "outputs": [
        {
          "internalType": "bool",
          "name": "",
          "type": "bool"
        }
      ],
      "stateMutability": "nonpayable",
      "type": "function"
    },
    {
      "inputs": [],
      "name": "limitLower",
      "outputs": [
        {
          "internalType": "int24",
          "name": "",
          "type": "int24"
        }
      ],
      "stateMutability": "view",
      "type": "function"
    },
    {
      "inputs": [],
      "name": "limitPositionId",
      "outputs": [
        {
          "internalType": "uint256",
          "name": "",
          "type": "uint256"
        }
      ],
      "stateMutability": "view",
      "type": "function"
    },
    {
      "inputs": [],
      "name": "limitUpper",
      "outputs": [
        {
          "internalType": "int24",
          "name": "",
          "type": "int24"
        }
      ],
      "stateMutability": "view",
      "type": "function"
    },
    {
      "inputs": [],
      "name": "name",
      "outputs": [
        {
          "internalType": "string",
          "name": "",
          "type": "string"
        }
      ],
      "stateMutability": "view",
      "type": "function"
    },
    {
      "inputs": [],
      "name": "owner",
      "outputs": [
        {
          "internalType": "address",
          "name": "",
          "type": "address"
        }
      ],
      "stateMutability": "view",
      "type": "function"
    },
    {
      "inputs": [],
      "name": "pool",
      "outputs": [
        {
          "internalType": "address",
          "name": "",
          "type": "address"
        }
      ],
      "stateMutability": "view",
      "type": "function"
    },
    {
      "inputs": [
        {
          "internalType": "int24",
          "name": "_baseLower",
          "type": "int24"
        },
        {
          "internalType": "int24",
          "name": "_baseUpper",
          "type": "int24"
        },
        {
          "internalType": "int24",
          "name": "_limitLower",
          "type": "int24"
        },
        {
          "internalType": "int24",
          "name": "_limitUpper",
          "type": "int24"
        },
        {
          "internalType": "int256",
          "name": "swapQuantity",
          "type": "int256"
        }
      ],
      "name": "rebalance",
      "outputs": [],
      "stateMutability": "nonpayable",
      "type": "function"
    },
    {
      "inputs": [],
      "name": "renounceOwnership",
      "outputs": [],
      "stateMutability": "nonpayable",
      "type": "function"
    },
    {
      "inputs": [],
      "name": "resetAllowances",
      "outputs": [],
      "stateMutability": "nonpayable",
      "type": "function"
    },
    {
      "inputs": [
        {
          "internalType": "address",
          "name": "_affiliate",
          "type": "address"
        }
      ],
      "name": "setAffiliate",
      "outputs": [],
      "stateMutability": "nonpayable",
      "type": "function"
    },
    {
      "inputs": [
        {
          "internalType": "address",
          "name": "_ammFeeRecipient",
          "type": "address"
        }
      ],
      "name": "setAmmFeeRecipient",
      "outputs": [],
      "stateMutability": "nonpayable",
      "type": "function"
    },
    {
      "inputs": [
        {
          "internalType": "uint32",
          "name": "newAuxTwapPeriod",
          "type": "uint32"
        }
      ],
      "name": "setAuxTwapPeriod",
      "outputs": [],
      "stateMutability": "nonpayable",
      "type": "function"
    },
    {
      "inputs": [
        {
          "internalType": "uint256",
          "name": "_deposit0Max",
          "type": "uint256"
        },
        {
          "internalType": "uint256",
          "name": "_deposit1Max",
          "type": "uint256"
        }
      ],
      "name": "setDepositMax",
      "outputs": [],
      "stateMutability": "nonpayable",
      "type": "function"
    },
    {
      "inputs": [
        {
          "internalType": "uint256",
          "name": "_hysteresis",
          "type": "uint256"
        }
      ],
      "name": "setHysteresis",
      "outputs": [],
      "stateMutability": "nonpayable",
      "type": "function"
    },
    {
      "inputs": [
        {
          "internalType": "uint32",
          "name": "newTwapPeriod",
          "type": "uint32"
        }
      ],
      "name": "setTwapPeriod",
      "outputs": [],
      "stateMutability": "nonpayable",
      "type": "function"
    },
    {
      "inputs": [],
      "name": "symbol",
      "outputs": [
        {
          "internalType": "string",
          "name": "",
          "type": "string"
        }
      ],
      "stateMutability": "view",
      "type": "function"
    },
    {
      "inputs": [],
      "name": "tickSpacing",
      "outputs": [
        {
          "internalType": "int24",
          "name": "",
          "type": "int24"
        }
      ],
      "stateMutability": "view",
      "type": "function"
    },
    {
      "inputs": [],
      "name": "token0",
      "outputs": [
        {
          "internalType": "address",
          "name": "",
          "type": "address"
        }
      ],
      "stateMutability": "view",
      "type": "function"
    },
    {
      "inputs": [],
      "name": "token1",
      "outputs": [
        {
          "internalType": "address",
          "name": "",
          "type": "address"
        }
      ],
      "stateMutability": "view",
      "type": "function"
    },
    {
      "inputs": [],
      "name": "totalSupply",
      "outputs": [
        {
          "internalType": "uint256",
          "name": "",
          "type": "uint256"
        }
      ],
      "stateMutability": "view",
      "type": "function"
    },
    {
      "inputs": [
        {
          "internalType": "address",
          "name": "to",
          "type": "address"
        },
        {
          "internalType": "uint256",
          "name": "amount",
          "type": "uint256"
        }
      ],
      "name": "transfer",
      "outputs": [
        {
          "internalType": "bool",
          "name": "",
          "type": "bool"
        }
      ],
      "stateMutability": "nonpayable",
      "type": "function"
    },
    {
      "inputs": [
        {
          "internalType": "address",
          "name": "from",
          "type": "address"
        },
        {
          "internalType": "address",
          "name": "to",
          "type": "address"
        },
        {
          "internalType": "uint256",
          "name": "amount",
          "type": "uint256"
        }
      ],
      "name": "transferFrom",
      "outputs": [
        {
          "internalType": "bool",
          "name": "",
          "type": "bool"
        }
      ],
      "stateMutability": "nonpayable",
      "type": "function"
    },
    {
      "inputs": [
        {
          "internalType": "address",
          "name": "newOwner",
          "type": "address"
        }
      ],
      "name": "transferOwnership",
      "outputs": [],
      "stateMutability": "nonpayable",
      "type": "function"
    },
    {
      "inputs": [],
      "name": "twapPeriod",
      "outputs": [
        {
          "internalType": "uint32",
          "name": "",
          "type": "uint32"
        }
      ],
      "stateMutability": "view",
      "type": "function"
    },
    {
      "inputs": [
        {
          "internalType": "uint256",
          "name": "shares",
          "type": "uint256"
        },
        {
          "internalType": "address",
          "name": "to",
          "type": "address"
        }
      ],
      "name": "withdraw",
      "outputs": [
        {
          "internalType": "uint256",
          "name": "amount0",
          "type": "uint256"
        },
        {
          "internalType": "uint256",
          "name": "amount1",
          "type": "uint256"
        }
      ],
      "stateMutability": "nonpayable",
      "type": "function"
    }
  ],
  "bytecode": "0x6101406040523480156200001257600080fd5b506040516200595738038062005957833981016040819052620000359162000766565b604080518082018252601781527f416c6765627261205661756c74204c69717569646974790000000000000000006020820152905163a4611b4560e01b8152600481018390526001600160a01b0388166024820152861515604482015273__$56b13d400ed8a19c5d6e5d4aea31feb3c0$__9063a4611b4590606401600060405180830381865af4158015620000cf573d6000803e3d6000fd5b505050506040513d6000823e601f3d908101601f19168201604052620000f9919081019062000800565b600362000107838262000964565b50600462000116828262000964565b50506001600555506200012933620005f4565b6001600160a01b038616620001855760405162461bcd60e51b815260206004820152601c60248201527f41562e636f6e7374727563746f723a207a65726f20616464726573730000000060448201526064015b60405180910390fd5b84801562000191575083155b80620001a45750838015620001a4575084155b620001fe5760405162461bcd60e51b8152602060048201526024808201527f41562e636f6e7374727563746f723a206d7573742062652073696e676c6520736044820152631a59195960e21b60648201526084016200017c565b336080526001600160a01b03861660a081905260408051630dfe168160e01b81529051630dfe1681916004808201926020929091908290030181865afa1580156200024d573d6000803e3d6000fd5b505050506040513d601f19601f8201168201806040525081019062000273919062000a30565b6001600160a01b031660c0816001600160a01b031681525050856001600160a01b031663d21220a76040518163ffffffff1660e01b8152600401602060405180830381865afa158015620002cb573d6000803e3d6000fd5b505050506040513d601f19601f82011682018060405250810190620002f1919062000a30565b6001600160a01b031660e0528415156101005283151561012052600e805463ffffffff191663ffffffff84161790556200032d60048362000a64565b600e805463ffffffff929092166401000000000263ffffffff60201b199092169190911790556200035e8362000646565b62000380600262000379670de0b6b3a76400006064620006c5565b90620006c5565b600d55600019600b819055600c55600780546001600160a01b031990811690915560088054909116905560c05160805160408051637445c8f560e11b815290516001600160a01b039384169363095ea7b393169163e88b91ea9160048281019260209291908290030181865afa158015620003ff573d6000803e3d6000fd5b505050506040513d601f19601f8201168201806040525081019062000425919062000a30565b6040516001600160e01b031960e084901b1681526001600160a01b03909116600482015260001960248201526044016020604051808303816000875af115801562000474573d6000803e3d6000fd5b505050506040513d601f19601f820116820180604052508101906200049a919062000a8a565b5060e0516001600160a01b031663095ea7b36080516001600160a01b031663e88b91ea6040518163ffffffff1660e01b8152600401602060405180830381865afa158015620004ed573d6000803e3d6000fd5b505050506040513d601f19601f8201168201806040525081019062000513919062000a30565b6040516001600160e01b031960e084901b1681526001600160a01b03909116600482015260001960248201526044016020604051808303816000875af115801562000562573d6000803e3d6000fd5b505050506040513d601f19601f8201168201806040525081019062000588919062000a8a565b5060408051861515815285151560208201526001600160a01b038581168284015263ffffffff8516606083015291519188169133917f172358391f411d1f42757699e3756fbe91aec726ecd94e8bc6017b588c0d1f05919081900360800190a350505050505062000abf565b600680546001600160a01b038381166001600160a01b0319831681179093556040519116919082907f8be0079c531659141344cd1fd0a4f28419497f9722a3daafe3b4186f6b6457e090600090a35050565b62000650620006da565b6001600160a01b038116620006b75760405162461bcd60e51b815260206004820152602660248201527f4f776e61626c653a206e6577206f776e657220697320746865207a65726f206160448201526564647265737360d01b60648201526084016200017c565b620006c281620005f4565b50565b6000620006d3828462000aa8565b9392505050565b6006546001600160a01b03163314620007365760405162461bcd60e51b815260206004820181905260248201527f4f776e61626c653a2063616c6c6572206973206e6f7420746865206f776e657260448201526064016200017c565b565b80516001600160a01b03811681146200075057600080fd5b919050565b805180151581146200075057600080fd5b60008060008060008060c087890312156200078057600080fd5b6200078b8762000738565b95506200079b6020880162000755565b9450620007ab6040880162000755565b9350620007bb6060880162000738565b9250608087015163ffffffff81168114620007d557600080fd5b8092505060a087015190509295509295509295565b634e487b7160e01b600052604160045260246000fd5b600060208083850312156200081457600080fd5b82516001600160401b03808211156200082c57600080fd5b818501915085601f8301126200084157600080fd5b815181811115620008565762000856620007ea565b604051601f8201601f19908116603f01168101908382118183101715620008815762000881620007ea565b8160405282815288868487010111156200089a57600080fd5b600093505b82841015620008be57848401860151818501870152928501926200089f565b600086848301015280965050505050505092915050565b600181811c90821680620008ea57607f821691505b6020821081036200090b57634e487b7160e01b600052602260045260246000fd5b50919050565b601f8211156200095f57600081815260208120601f850160051c810160208610156200093a5750805b601f850160051c820191505b818110156200095b5782815560010162000946565b5050505b505050565b81516001600160401b03811115620009805762000980620007ea565b6200099881620009918454620008d5565b8462000911565b602080601f831160018114620009d05760008415620009b75750858301515b600019600386901b1c1916600185901b1785556200095b565b600085815260208120601f198616915b8281101562000a0157888601518255948401946001909101908401620009e0565b508582101562000a205787850151600019600388901b60f8161c191681555b5050505050600190811b01905550565b60006020828403121562000a4357600080fd5b620006d38262000738565b634e487b7160e01b600052601260045260246000fd5b600063ffffffff8084168062000a7e5762000a7e62000a4e565b92169190910492915050565b60006020828403121562000a9d57600080fd5b620006d38262000755565b60008262000aba5762000aba62000a4e565b500490565b60805160a05160c05160e0516101005161012051614cea62000c6d6000396000818161049701526112aa01526000818161057101526112340152600081816106990152818161097b015281816109f901528181610e2901528181610f0a0152818161145d015281816114e5015281816115810152818161169c0152818161196801528181611e6701528181611ff00152818161396801528181613a4b01528181613cba01528181613cf801526141d8015260008181610395015281816108d4015281816109bf01528181610de701528181610e600152818161143c015281816114c30152818161156001528181611661015281816118d001528181611dd101528181611f70015281816138d1015281816139ee01528181613bfa01528181613c3801526141a90152600081816103dc01528181610abd01528181610d7e015281816114a10152818161153f015281816119d201528181611a7b01528181611cbf015281816120ad0152818161329e01528181613e050152613ea40152600081816104680152818161293d015281816137a50152818161382b01528181613a8e0152613b230152614cea6000f3fe608060405234801561001057600080fd5b506004361061030b5760003560e01c80637aea53091161019d578063c4a7761e116100e9578063d940d768116100a2578063f2fde38b1161007c578063f2fde38b1461070e578063f620732614610721578063f9c95d4614610731578063fa0827431461074457600080fd5b8063d940d768146106d6578063dd62ed3e146106df578063ddca3f43146106f257600080fd5b8063c4a7761e1461067c578063c879657214610684578063d0c93a7c1461068c578063d21220a714610694578063d2eabcfc146106bb578063d87346aa146106c357600080fd5b80638dbdbe6d11610156578063a049de6b11610130578063a049de6b1461061a578063a457c2d714610647578063a9059cbb1461065a578063aaf5eb681461066d57600080fd5b80638dbdbe6d146105d257806391563d32146105e557806395d89b411461061257600080fd5b80637aea5309146105635780637f7a1eec1461056c57806381de128b14610593578063888a9134146105a6578063897f078c146105ae5780638da5cb5b146105c157600080fd5b8063337fdba31161025c57806345e05f43116102155780635ffc1ff7116101ef5780635ffc1ff714610516578063648cab851461052957806370a0823114610532578063715018a61461055b57600080fd5b806345e05f43146104f25780634d461fbb1461050557806351e87af71461050e57600080fd5b8063337fdba3146104635780633505b09f1461048a57806337e41b401461049257806339509351146104b95780633e091ee9146104cc578063400f0ceb146104df57600080fd5b806316f0115b116102c957806323b872dd116102a357806323b872dd146104195780632bbb56d91461042c5780632c8958f614610441578063313ce5671461045457600080fd5b806316f0115b146103d757806318160ddd146103fe57806322401d7c1461041057600080fd5b8062f714ce14610310578063065e53601461033d57806306fdde0314610358578063095ea7b31461036d5780630dfe1681146103905780630f35bcac146103cf575b600080fd5b61032361031e3660046143f9565b61074c565b604080519283526020830191909152015b60405180910390f35b610345610ab6565b60405160029190910b8152602001610334565b610360610ba3565b6040516103349190614479565b61038061037b36600461448c565b610c35565b6040519015158152602001610334565b6103b77f000000000000000000000000000000000000000000000000000000000000000081565b6040516001600160a01b039091168152602001610334565b610345610c4f565b6103b77f000000000000000000000000000000000000000000000000000000000000000081565b6002545b604051908152602001610334565b610402600a5481565b6103806104273660046144b8565b610cee565b61043f61043a3660046144f9565b610d14565b005b61043f61044f366004614516565b610d73565b60405160128152602001610334565b6103b77f000000000000000000000000000000000000000000000000000000000000000081565b61043f610e56565b6103807f000000000000000000000000000000000000000000000000000000000000000081565b6103806104c736600461448c565b610fb4565b61043f6104da366004614596565b610fd6565b61043f6104ed3660046145ca565b611027565b6008546103b7906001600160a01b031681565b610402600c5481565b610345611093565b61043f6105243660046145e7565b611132565b610402600b5481565b6104026105403660046144f9565b6001600160a01b031660009081526020819052604090205490565b61043f611171565b610402600d5481565b6103807f000000000000000000000000000000000000000000000000000000000000000081565b61043f6105a13660046144f9565b611185565b6103456111dd565b6007546103b7906001600160a01b031681565b6006546001600160a01b03166103b7565b6104026105e0366004614600565b611228565b600e546105fd90640100000000900463ffffffff1681565b60405163ffffffff9091168152602001610334565b6103606117c5565b6106226117d4565b604080516001600160801b039094168452602084019290925290820152606001610334565b61038061065536600461448c565b6117ef565b61038061066836600461448c565b611875565b610402670de0b6b3a764000081565b610323611883565b6103236119a1565b6103456119ce565b6103b77f000000000000000000000000000000000000000000000000000000000000000081565b610622611a57565b61043f6106d1366004614648565b611a67565b61040260095481565b6104026106ed3660046146ac565b61207e565b6106fa6120a9565b60405162ffffff9091168152602001610334565b61043f61071c3660046144f9565b61213b565b600e546105fd9063ffffffff1681565b61043f61073f3660046145ca565b6121b1565b61034561225e565b6000806107576122a9565b600084116107a25760405162461bcd60e51b815260206004820152601360248201527241562e77697468647261773a2073686172657360681b60448201526064015b60405180910390fd5b6001600160a01b0383166107ea5760405162461bcd60e51b815260206004820152600f60248201526e41562e77697468647261773a20746f60881b6044820152606401610799565b60006107f560025490565b905080851480610810575061080c856103e8612302565b8110155b61085c5760405162461bcd60e51b815260206004820152601760248201527f41562e77697468647261773a206d696e207368617265730000000000000000006044820152606401610799565b610866600161230e565b505060008060008060095460001461088c576108866009548a878b6123e4565b90945092505b600a54156108a8576108a2600a548a878b6123e4565b90925090505b6040516370a0823160e01b815230600482015260009061094c908790610946908d906001600160a01b037f000000000000000000000000000000000000000000000000000000000000000016906370a08231906024015b602060405180830381865afa15801561091c573d6000803e3d6000fd5b505050506040513d601f19601f8201168201806040525081019061094091906146da565b90612663565b9061266f565b6040516370a0823160e01b81523060048201529091506000906109aa908890610946908e906001600160a01b037f000000000000000000000000000000000000000000000000000000000000000016906370a08231906024016108ff565b905081156109e6576109e66001600160a01b037f0000000000000000000000000000000000000000000000000000000000000000168b8461267b565b8015610a2057610a206001600160a01b037f0000000000000000000000000000000000000000000000000000000000000000168b8361267b565b610a3482610a2e8887612302565b90612302565b9850610a4481610a2e8786612302565b9750610a50338c6126e3565b604080518c8152602081018b90529081018990526001600160a01b038b169033907febff2602b3f468259e1e99f613fed6691f3a6526effe6ef3e768ba7ae7a36c4f9060600160405180910390a350505050505050610aaf6001600555565b9250929050565b60008060007f00000000000000000000000000000000000000000000000000000000000000006001600160a01b031663e76c01e46040518163ffffffff1660e01b815260040160c060405180830381865afa158015610b19573d6000803e3d6000fd5b505050506040513d601f19601f82011682018060405250810190610b3d9190614725565b955050505092505080610b9d5760405162461bcd60e51b815260206004820152602260248201527f41562e63757272656e745469636b3a2074686520706f6f6c206973206c6f636b604482015261195960f21b6064820152608401610799565b50919050565b606060038054610bb2906147a6565b80601f0160208091040260200160405190810160405280929190818152602001828054610bde906147a6565b8015610c2b5780601f10610c0057610100808354040283529160200191610c2b565b820191906000526020600020905b815481529060010190602001808311610c0e57829003601f168201915b5050505050905090565b600033610c43818585612815565b60019150505b92915050565b6000600a54600003610c615750600090565b6000610c6b612939565b6001600160a01b03166399fbab88600a546040518263ffffffff1660e01b8152600401610c9a91815260200190565b61018060405180830381865afa158015610cb8573d6000803e3d6000fd5b505050506040513d601f19601f82011682018060405250810190610cdc91906147fc565b50939c9b505050505050505050505050565b600033610cfc8582856129bd565b610d07858585612a31565b60019150505b9392505050565b610d1c612bd5565b600880546001600160a01b0319166001600160a01b03831690811790915560405190815233907f3066ef5dd340e8b2ea28d62f5a8391eb7a82d3ee87532724a1ca4386d34f7523906020015b60405180910390a250565b336001600160a01b037f00000000000000000000000000000000000000000000000000000000000000001614610dd15760405162461bcd60e51b815260206004820152600360248201526231b11960e91b6044820152606401610799565b6000841315610e1357610e0e6001600160a01b037f000000000000000000000000000000000000000000000000000000000000000016338661267b565b610e50565b6000831315610e5057610e506001600160a01b037f000000000000000000000000000000000000000000000000000000000000000016338561267b565b50505050565b610e5e612bd5565b7f00000000000000000000000000000000000000000000000000000000000000006001600160a01b031663095ea7b3610e95612939565b6040516001600160e01b031960e084901b1681526001600160a01b03909116600482015260001960248201526044016020604051808303816000875af1158015610ee3573d6000803e3d6000fd5b505050506040513d601f19601f82011682018060405250810190610f0791906148dc565b507f00000000000000000000000000000000000000000000000000000000000000006001600160a01b031663095ea7b3610f3f612939565b6040516001600160e01b031960e084901b1681526001600160a01b03909116600482015260001960248201526044016020604051808303816000875af1158015610f8d573d6000803e3d6000fd5b505050506040513d601f19601f82011682018060405250810190610fb191906148dc565b50565b600033610c43818585610fc7838361207e565b610fd1919061490d565b612815565b610fde612bd5565b600b829055600c819055604080518381526020810183905233917fafd3b05a4086b378b6f291200a528d8aed8c5e0317af77436b001f1bec28821a910160405180910390a25050565b61102f612bd5565b600e805467ffffffff00000000191664010000000063ffffffff8416908102919091179091556040805133815260208101929092527f39da19f5960a3f182ced1ff1853b7be54f37150799b3003a40bf4e0d4c740c8591015b60405180910390a150565b6000600a546000036110a55750600090565b60006110af612939565b6001600160a01b03166399fbab88600a546040518263ffffffff1660e01b81526004016110de91815260200190565b61018060405180830381865afa1580156110fc573d6000803e3d6000fd5b505050506040513d601f19601f8201168201806040525081019061112091906147fc565b50949c9b505050505050505050505050565b61113a612bd5565b600d81905560405181815233907f529698f34660760dcb172def5c99d62e1b5b74b444df322e8f7da31f2bd0a86b90602001610d68565b611179612bd5565b6111836000612c2f565b565b61118d612bd5565b600780546001600160a01b0319166001600160a01b03831690811790915560405190815233907fbb78b7c13893a913fa8c9ecb9fdaf97597aa412a39c778bf976790555f0942f790602001610d68565b60006009546000036111ef5750600090565b60006111f9612939565b6001600160a01b03166399fbab886009546040518263ffffffff1660e01b8152600401610c9a91815260200190565b60006112326122a9565b7f00000000000000000000000000000000000000000000000000000000000000008061125c575083155b6112a85760405162461bcd60e51b815260206004820152601e60248201527f41562e6465706f7369743a20746f6b656e30206e6f7420616c6c6f77656400006044820152606401610799565b7f0000000000000000000000000000000000000000000000000000000000000000806112d2575082155b61131e5760405162461bcd60e51b815260206004820152601e60248201527f41562e6465706f7369743a20746f6b656e31206e6f7420616c6c6f77656400006044820152606401610799565b600084118061132d5750600083115b6113795760405162461bcd60e51b815260206004820181905260248201527f41562e6465706f7369743a206465706f73697473206d757374206265203e20306044820152606401610799565b600b548410801561138b5750600c5483105b6113d75760405162461bcd60e51b815260206004820152601e60248201527f41562e6465706f7369743a206465706f7369747320746f6f206c6172676500006044820152606401610799565b6001600160a01b038216158015906113f857506001600160a01b0382163014155b6114355760405162461bcd60e51b815260206004820152600e60248201526d41562e6465706f7369743a20746f60901b6044820152606401610799565b60006114927f00000000000000000000000000000000000000000000000000000000000000007f0000000000000000000000000000000000000000000000000000000000000000611484610ab6565b670de0b6b3a7640000612c81565b600e54909150600090611519907f0000000000000000000000000000000000000000000000000000000000000000907f0000000000000000000000000000000000000000000000000000000000000000907f00000000000000000000000000000000000000000000000000000000000000009063ffffffff16670de0b6b3a7640000612d85565b600e54909150600090640100000000900463ffffffff1661153a57816115c1565b6115c17f00000000000000000000000000000000000000000000000000000000000000007f00000000000000000000000000000000000000000000000000000000000000007f0000000000000000000000000000000000000000000000000000000000000000600e60049054906101000a900463ffffffff16670de0b6b3a7640000612d85565b90506115ce838383612f26565b6115d8600161230e565b50506000806115e5611883565b9150915060006115f460025490565b905060008311806116055750600082115b8061160e575080155b61164e5760405162461bcd60e51b815260206004820152601160248201527041562e6465706f7369743a20656d70747960781b6044820152606401610799565b8915611689576116896001600160a01b037f00000000000000000000000000000000000000000000000000000000000000001633308d613083565b88156116c4576116c46001600160a01b037f00000000000000000000000000000000000000000000000000000000000000001633308c613083565b60006116d387878760006130bb565b905060006116ed670de0b6b3a76400006109468e85612663565b90506116f98b82612302565b9850821561174c57600061171089898960016130bb565b9050600061172a670de0b6b3a76400006109468985612663565b90506117436117398288612302565b6109468d88612663565b9a50505061175b565b611758896103e8612663565b98505b6117658a8a613130565b604080518a8152602081018e90529081018c90526001600160a01b038b169033907f4e2ca0515ed1aef1395f66b5303bb5d6f1bf9d61a353fa53f73f8ac9973fa9f69060600160405180910390a35050505050505050610d0d6001600555565b606060048054610bb2906147a6565b60008060006117e4600a546131ef565b925092509250909192565b600033816117fd828661207e565b90508381101561185d5760405162461bcd60e51b815260206004820152602560248201527f45524332303a2064656372656173656420616c6c6f77616e63652062656c6f77604482015264207a65726f60d81b6064820152608401610799565b61186a8286868403612815565b506001949350505050565b600033610c43818585612a31565b600080600080611891611a57565b92509250506000806118a16117d4565b6040516370a0823160e01b8152306004820152919450925061193c91508390610a2e9087906001600160a01b037f000000000000000000000000000000000000000000000000000000000000000016906370a08231906024015b602060405180830381865afa158015611918573d6000803e3d6000fd5b505050506040513d601f19601f82011682018060405250810190610a2e91906146da565b6040516370a0823160e01b8152306004820152909650611997908290610a2e9086906001600160a01b037f000000000000000000000000000000000000000000000000000000000000000016906370a08231906024016118fb565b9450505050509091565b6000806119ac6122a9565b6000806119b9600161230e565b909450925050506119ca6001600555565b9091565b60007f00000000000000000000000000000000000000000000000000000000000000006001600160a01b031663d0c93a7c6040518163ffffffff1660e01b8152600401602060405180830381865afa158015611a2e573d6000803e3d6000fd5b505050506040513d601f19601f82011682018060405250810190611a529190614920565b905090565b60008060006117e46009546131ef565b611a6f6122a9565b611a77612bd5565b60007f00000000000000000000000000000000000000000000000000000000000000006001600160a01b031663d0c93a7c6040518163ffffffff1660e01b8152600401602060405180830381865afa158015611ad7573d6000803e3d6000fd5b505050506040513d601f19601f82011682018060405250810190611afb9190614920565b90508460020b8660020b128015611b1c5750611b178187614953565b60020b155b8015611b325750611b2d8186614953565b60020b155b611b8a5760405162461bcd60e51b815260206004820152602360248201527f41562e726562616c616e63653a206261736520706f736974696f6e20696e76616044820152621b1a5960ea1b6064820152608401610799565b8260020b8460020b128015611ba95750611ba48185614953565b60020b155b8015611bbf5750611bba8184614953565b60020b155b611c175760405162461bcd60e51b8152602060048201526024808201527f41562e726562616c616e63653a206c696d697420706f736974696f6e20696e76604482015263185b1a5960e21b6064820152608401610799565b8360020b8660020b141580611c3257508260020b8560020b14155b611c885760405162461bcd60e51b815260206004820152602160248201527f41562e726562616c616e63653a206964656e746963616c20706f736974696f6e6044820152607360f81b6064820152608401610799565b600080611c95600061230e565b91509150611ca46009546134e4565b611caf600a546134e4565b8315611db9576001600160a01b037f00000000000000000000000000000000000000000000000000000000000000001663128acb08306000871380611cfc57611cf788614975565b611cfe565b875b60008913611d2a57611d25600173fffd8963efd1fc6a506488495d951d5263988d26614991565b611d3a565b611d3a6401000276a360016149b8565b60408051306020820152016040516020818303038152906040526040518663ffffffff1660e01b8152600401611d749594939291906149d8565b60408051808303816000875af1158015611d92573d6000803e3d6000fd5b505050506040513d601f19601f82011682018060405250810190611db69190614a13565b50505b6040516370a0823160e01b81523060048201526000907f00000000000000000000000000000000000000000000000000000000000000006001600160a01b0316906370a0823190602401602060405180830381865afa158015611e20573d6000803e3d6000fd5b505050506040513d601f19601f82011682018060405250810190611e4491906146da565b6040516370a0823160e01b81523060048201529091506000906001600160a01b037f000000000000000000000000000000000000000000000000000000000000000016906370a0823190602401602060405180830381865afa158015611eae573d6000803e3d6000fd5b505050506040513d601f19601f82011682018060405250810190611ed291906146da565b90507fbc4c20ad04f161d631d9ce94d27659391196415aa3c42f6a71c62e905ece782d611efd610ab6565b83838787611f0a60025490565b6040805160029790970b87526020870195909552938501929092526060840152608083015260a082015260c00160405180910390a1611f4b8a8a84846136b7565b6040516370a0823160e01b815230600482015261206890899089906001600160a01b037f000000000000000000000000000000000000000000000000000000000000000016906370a0823190602401602060405180830381865afa158015611fb7573d6000803e3d6000fd5b505050506040513d601f19601f82011682018060405250810190611fdb91906146da565b6040516370a0823160e01b81523060048201527f00000000000000000000000000000000000000000000000000000000000000006001600160a01b0316906370a0823190602401602060405180830381865afa15801561203f573d6000803e3d6000fd5b505050506040513d601f19601f8201168201806040525081019061206391906146da565b6136cc565b50505050506120776001600555565b5050505050565b6001600160a01b03918216600090815260016020908152604080832093909416825291909152205490565b60007f00000000000000000000000000000000000000000000000000000000000000006001600160a01b031663e76c01e46040518163ffffffff1660e01b815260040160c060405180830381865afa158015612109573d6000803e3d6000fd5b505050506040513d601f19601f8201168201806040525081019061212d9190614725565b50505061ffff169392505050565b612143612bd5565b6001600160a01b0381166121a85760405162461bcd60e51b815260206004820152602660248201527f4f776e61626c653a206e6577206f776e657220697320746865207a65726f206160448201526564647265737360d01b6064820152608401610799565b610fb181612c2f565b6121b9612bd5565b60008163ffffffff161161220f5760405162461bcd60e51b815260206004820181905260248201527f41562e73657454776170506572696f643a206d697373696e6720706572696f646044820152606401610799565b600e805463ffffffff191663ffffffff83169081179091556040805133815260208101929092527fe4c60f4984caeb7f45b0cfe6d4233c115601ab11d141bc2cbf68b48346cdef389101611088565b60006009546000036122705750600090565b600061227a612939565b6001600160a01b03166399fbab886009546040518263ffffffff1660e01b81526004016110de91815260200190565b6002600554036122fb5760405162461bcd60e51b815260206004820152601f60248201527f5265656e7472616e637947756172643a207265656e7472616e742063616c6c006044820152606401610799565b6002600555565b6000610d0d828461490d565b600954600090819015612349576000806123296009546136e1565b90925090506123388483612302565b93506123448382612302565b925050505b600a541561237f5760008061235f600a546136e1565b909250905061236e8483612302565b935061237a8382612302565b925050505b600082118061238e5750600081115b156123df5761239d82826137a1565b82156123df57604080518381526020810183905233917fec8208dd791fa8ffdc0d7427f3ba9c0ed06f1bce9a86254e6940c10cc1802fef910160405180910390a25b915091565b60008060008060006123f4612939565b6001600160a01b03166399fbab888a6040518263ffffffff1660e01b815260040161242191815260200190565b61018060405180830381865afa15801561243f573d6000803e3d6000fd5b505050506040513d601f19601f8201168201806040525081019061246391906147fc565b9b509b505050995050505050505050816001600160801b0316600014801561249257506001600160801b038116155b6124de5760405162461bcd60e51b815260206004820152601860248201527f41562e77697468647261773a20746f6b656e73206f77656400000000000000006044820152606401610799565b60006124f7886109466001600160801b0387168c612663565b90506001600160801b0381161561265657612510612939565b6001600160a01b0316630c49ccbe6040518060a001604052808d8152602001846001600160801b031681526020016000815260200160008152602001428152506040518263ffffffff1660e01b815260040161256c9190614a37565b60408051808303816000875af115801561258a573d6000803e3d6000fd5b505050506040513d601f19601f820116820180604052508101906125ae9190614a13565b90965094506125bb612939565b604080516080810182528c81526001600160a01b038a811660208301526001600160801b03808b168385015289166060830152915163fc6f786560e01b8152929091169163fc6f78659161261191600401614a7a565b60408051808303816000875af115801561262f573d6000803e3d6000fd5b505050506040513d601f19601f820116820180604052508101906126539190614a13565b50505b5050505094509492505050565b6000610d0d8284614abd565b6000610d0d8284614ad4565b6040516001600160a01b0383166024820152604481018290526126de90849063a9059cbb60e01b906064015b60408051601f198184030181529190526020810180516001600160e01b03166001600160e01b031990931692909217909152613d2c565b505050565b6001600160a01b0382166127435760405162461bcd60e51b815260206004820152602160248201527f45524332303a206275726e2066726f6d20746865207a65726f206164647265736044820152607360f81b6064820152608401610799565b6001600160a01b038216600090815260208190526040902054818110156127b75760405162461bcd60e51b815260206004820152602260248201527f45524332303a206275726e20616d6f756e7420657863656564732062616c616e604482015261636560f01b6064820152608401610799565b6001600160a01b0383166000818152602081815260408083208686039055600280548790039055518581529192917fddf252ad1be2c89b69c2b068fc378daa952ba7f163c4a11628f55a4df523b3ef910160405180910390a3505050565b6001600160a01b0383166128775760405162461bcd60e51b8152602060048201526024808201527f45524332303a20617070726f76652066726f6d20746865207a65726f206164646044820152637265737360e01b6064820152608401610799565b6001600160a01b0382166128d85760405162461bcd60e51b815260206004820152602260248201527f45524332303a20617070726f766520746f20746865207a65726f206164647265604482015261737360f01b6064820152608401610799565b6001600160a01b0383811660008181526001602090815260408083209487168084529482529182902085905590518481527f8c5be1e5ebec7d5bd14f71427d1e84f3dd0314c0f7b2291e5b200ac8c7c3b925910160405180910390a3505050565b60007f00000000000000000000000000000000000000000000000000000000000000006001600160a01b031663e88b91ea6040518163ffffffff1660e01b8152600401602060405180830381865afa158015612999573d6000803e3d6000fd5b505050506040513d601f19601f82011682018060405250810190611a529190614ae8565b60006129c9848461207e565b90506000198114610e505781811015612a245760405162461bcd60e51b815260206004820152601d60248201527f45524332303a20696e73756666696369656e7420616c6c6f77616e63650000006044820152606401610799565b610e508484848403612815565b6001600160a01b038316612a955760405162461bcd60e51b815260206004820152602560248201527f45524332303a207472616e736665722066726f6d20746865207a65726f206164604482015264647265737360d81b6064820152608401610799565b6001600160a01b038216612af75760405162461bcd60e51b815260206004820152602360248201527f45524332303a207472616e7366657220746f20746865207a65726f206164647260448201526265737360e81b6064820152608401610799565b6001600160a01b03831660009081526020819052604090205481811015612b6f5760405162461bcd60e51b815260206004820152602660248201527f45524332303a207472616e7366657220616d6f756e7420657863656564732062604482015265616c616e636560d01b6064820152608401610799565b6001600160a01b03848116600081815260208181526040808320878703905593871680835291849020805487019055925185815290927fddf252ad1be2c89b69c2b068fc378daa952ba7f163c4a11628f55a4df523b3ef910160405180910390a3610e50565b6006546001600160a01b031633146111835760405162461bcd60e51b815260206004820181905260248201527f4f776e61626c653a2063616c6c6572206973206e6f7420746865206f776e65726044820152606401610799565b600680546001600160a01b038381166001600160a01b0319831681179093556040519116919082907f8be0079c531659141344cd1fd0a4f28419497f9722a3daafe3b4186f6b6457e090600090a35050565b600073__$56b13d400ed8a19c5d6e5d4aea31feb3c0$__6343c57a278473__$56b13d400ed8a19c5d6e5d4aea31feb3c0$__63809fdd33866040518263ffffffff1660e01b8152600401612cd791815260200190565b602060405180830381865af4158015612cf4573d6000803e3d6000fd5b505050506040513d601f19601f82011682018060405250810190612d189190614b05565b88886040518563ffffffff1660e01b8152600401612d399493929190614b20565b602060405180830381865af4158015612d56573d6000803e3d6000fd5b505050506040513d601f19601f82011682018060405250810190612d7a91906146da565b90505b949350505050565b600080612d90613e01565b604051638241348960e01b81526001600160a01b038216600482015263ffffffff8616602482015290915060009073__$56b13d400ed8a19c5d6e5d4aea31feb3c0$__90638241348990604401602060405180830381865af4158015612dfa573d6000803e3d6000fd5b505050506040513d601f19601f82011682018060405250810190612e1e9190614920565b60020b905073__$56b13d400ed8a19c5d6e5d4aea31feb3c0$__6343c57a278273__$56b13d400ed8a19c5d6e5d4aea31feb3c0$__63809fdd33886040518263ffffffff1660e01b8152600401612e7791815260200190565b602060405180830381865af4158015612e94573d6000803e3d6000fd5b505050506040513d601f19601f82011682018060405250810190612eb89190614b05565b8a8a6040518563ffffffff1660e01b8152600401612ed99493929190614b20565b602060405180830381865af4158015612ef6573d6000803e3d6000fd5b505050506040513d601f19601f82011682018060405250810190612f1a91906146da565b98975050505050505050565b6000828411612f4e57612f4983610946670de0b6b3a76400006109408389613f74565b612f68565b612f6884610946670de0b6b3a76400006109408388613f74565b600e54909150640100000000900463ffffffff161561302d576000828511612fa957612fa483610946670de0b6b3a7640000610940838a613f74565b612fc3565b612fc385610946670de0b6b3a76400006109408388613f74565b9050600d54821180612fd65750600d5481115b1561302757612fe3613f80565b6130275760405162461bcd60e51b815260206004820152601560248201527420ab173232b837b9b4ba1d103a393c903630ba32b960591b6044820152606401610799565b50610e50565b600d54811115610e505761303f613f80565b610e505760405162461bcd60e51b815260206004820152601560248201527420ab173232b837b9b4ba1d103a393c903630ba32b960591b6044820152606401610799565b6040516001600160a01b0380851660248301528316604482015260648101829052610e509085906323b872dd60e01b906084016126a7565b600081156130fd57600e54640100000000900463ffffffff16156130f3576130ec6130e6868661401d565b8461401d565b9050612d7d565b6130ec858561401d565b600e54640100000000900463ffffffff1615613126576130ec613120868661402c565b8461402c565b6130ec858561402c565b6001600160a01b0382166131865760405162461bcd60e51b815260206004820152601f60248201527f45524332303a206d696e7420746f20746865207a65726f2061646472657373006044820152606401610799565b8060026000828254613198919061490d565b90915550506001600160a01b038216600081815260208181526040808320805486019055518481527fddf252ad1be2c89b69c2b068fc378daa952ba7f163c4a11628f55a4df523b3ef910160405180910390a35050565b60008060008360000361320a575060009150819050806134dd565b600080600080600061321a612939565b6001600160a01b03166399fbab888a6040518263ffffffff1660e01b815260040161324791815260200190565b61018060405180830381865afa158015613265573d6000803e3d6000fd5b505050506040513d601f19601f8201168201806040525081019061328991906147fc565b9b509b505050995099509950505050505060007f00000000000000000000000000000000000000000000000000000000000000006001600160a01b031663e76c01e46040518163ffffffff1660e01b815260040160c060405180830381865afa1580156132fa573d6000803e3d6000fd5b505050506040513d601f19601f8201168201806040525081019061331e9190614725565b505060405163986cfba360e01b815260028b900b600482015293945073__$56b13d400ed8a19c5d6e5d4aea31feb3c0$__9363c72e160b935085925084915063986cfba390602401602060405180830381865af4158015613383573d6000803e3d6000fd5b505050506040513d601f19601f820116820180604052508101906133a79190614ae8565b60405163986cfba360e01b815260028a900b600482015273__$56b13d400ed8a19c5d6e5d4aea31feb3c0$__9063986cfba390602401602060405180830381865af41580156133fa573d6000803e3d6000fd5b505050506040513d601f19601f8201168201806040525081019061341e9190614ae8565b60405160e085901b6001600160e01b03191681526001600160a01b039384166004820152918316602483015290911660448201526001600160801b03871660648201526084016040805180830381865af4158015613480573d6000803e3d6000fd5b505050506040513d601f19601f820116820180604052508101906134a49190614a13565b90985096506134bc886001600160801b038516612302565b97506134d1876001600160801b038416612302565b96508398505050505050505b9193909250565b8015610fb15760006134f582614042565b90506001600160801b038116156135af5761350e612939565b6001600160a01b0316630c49ccbe6040518060a00160405280858152602001846001600160801b031681526020016000815260200160008152602001428152506040518263ffffffff1660e01b815260040161356a9190614a37565b60408051808303816000875af1158015613588573d6000803e3d6000fd5b505050506040513d601f19601f820116820180604052508101906135ac9190614a13565b50505b6135b7612939565b604080516080810182528481523060208201526001600160801b038183018190526060820152905163fc6f786560e01b81526001600160a01b03929092169163fc6f78659161360891600401614a7a565b60408051808303816000875af1158015613626573d6000803e3d6000fd5b505050506040513d601f19601f8201168201806040525081019061364a9190614a13565b5050613654612939565b6001600160a01b03166342966c68836040518263ffffffff1660e01b815260040161368191815260200190565b600060405180830381600087803b15801561369b57600080fd5b505af11580156136af573d6000803e3d6000fd5b505050505050565b6136c3848484846140e0565b60095550505050565b6136d8848484846140e0565b600a5550505050565b600080826000036136f757506000928392509050565b600080613702612939565b604080516080810182528781523060208201526001600160801b038183018190526060820152905163fc6f786560e01b81526001600160a01b03929092169163fc6f78659161375391600401614a7a565b60408051808303816000875af1158015613771573d6000803e3d6000fd5b505050506040513d601f19601f820116820180604052508101906137959190614a13565b90969095509350505050565b60007f00000000000000000000000000000000000000000000000000000000000000006001600160a01b031663665a17c56040518163ffffffff1660e01b8152600401602060405180830381865afa158015613801573d6000803e3d6000fd5b505050506040513d601f19601f8201168201806040525081019061382591906146da565b905060007f00000000000000000000000000000000000000000000000000000000000000006001600160a01b0316636ef25c3a6040518163ffffffff1660e01b8152600401602060405180830381865afa158015613887573d6000803e3d6000fd5b505050506040513d601f19601f820116820180604052508101906138ab91906146da565b6040516370a0823160e01b81523060048201529091506139429085906001600160a01b037f000000000000000000000000000000000000000000000000000000000000000016906370a08231906024015b602060405180830381865afa158015613919573d6000803e3d6000fd5b505050506040513d601f19601f8201168201806040525081019061393d91906146da565b61402c565b6040516370a0823160e01b81523060048201529094506139979084906001600160a01b037f000000000000000000000000000000000000000000000000000000000000000016906370a08231906024016138fc565b92506000821180156139b357506007546001600160a01b031615155b15613a72578315613a1557600754613a15906001600160a01b03166139e4670de0b6b3a76400006109468887612663565b6001600160a01b037f000000000000000000000000000000000000000000000000000000000000000016919061267b565b8215613a7257600754613a72906001600160a01b0316613a41670de0b6b3a76400006109468787612663565b6001600160a01b037f000000000000000000000000000000000000000000000000000000000000000016919061267b565b8015610e50576008546000906001600160a01b031615613b13577f00000000000000000000000000000000000000000000000000000000000000006001600160a01b031663acc8247d6040518163ffffffff1660e01b8152600401602060405180830381865afa158015613aea573d6000803e3d6000fd5b505050506040513d601f19601f82011682018060405250810190613b0e91906146da565b613b1d565b670de0b6b3a76400005b905060007f00000000000000000000000000000000000000000000000000000000000000006001600160a01b031663469048406040518163ffffffff1660e01b8152600401602060405180830381865afa158015613b7f573d6000803e3d6000fd5b505050506040513d601f19601f82011682018060405250810190613ba39190614ae8565b90508515613c65576000613bc3670de0b6b3a76400006109468987612663565b90506000613bdd670de0b6b3a76400006109468487612663565b90506000613beb8383613f74565b9050613c216001600160a01b037f000000000000000000000000000000000000000000000000000000000000000016858461267b565b8015613c6157600854613c61906001600160a01b037f0000000000000000000000000000000000000000000000000000000000000000811691168361267b565b5050505b84156136af576000613c83670de0b6b3a76400006109468887612663565b90506000613c9d670de0b6b3a76400006109468487612663565b90506000613cab8383613f74565b9050613ce16001600160a01b037f000000000000000000000000000000000000000000000000000000000000000016858461267b565b8015613d2157600854613d21906001600160a01b037f0000000000000000000000000000000000000000000000000000000000000000811691168361267b565b505050505050505050565b6000613d81826040518060400160405280602081526020017f5361666545524332303a206c6f772d6c6576656c2063616c6c206661696c6564815250856001600160a01b03166142c19092919063ffffffff16565b9050805160001480613da2575080806020019051810190613da291906148dc565b6126de5760405162461bcd60e51b815260206004820152602a60248201527f5361666545524332303a204552433230206f7065726174696f6e20646964206e6044820152691bdd081cdd58d8d9595960b21b6064820152608401610799565b60007f00000000000000000000000000000000000000000000000000000000000000006001600160a01b031663ef01df4f6040518163ffffffff1660e01b8152600401602060405180830381865afa158015613e61573d6000803e3d6000fd5b505050506040513d601f19601f82011682018060405250810190613e859190614ae8565b6040516330ea6ca760e11b81526001600160a01b0380831660048301527f000000000000000000000000000000000000000000000000000000000000000016602482015290915073__$56b13d400ed8a19c5d6e5d4aea31feb3c0$__906361d4d94e90604401602060405180830381865af4158015613f08573d6000803e3d6000fd5b505050506040513d601f19601f82011682018060405250810190613f2c91906148dc565b613f715760405162461bcd60e51b815260206004820152601660248201527520ab1d103234b1b7b73732b1ba32b21038363ab3b4b760511b6044820152606401610799565b90565b6000610d0d8284614b55565b600080613f8b613e01565b604051634c3e6e1160e11b81526001600160a01b038216600482015290915060009073__$56b13d400ed8a19c5d6e5d4aea31feb3c0$__9063987cdc22906024016040805180830381865af4158015613fe8573d6000803e3d6000fd5b505050506040513d601f19601f8201168201806040525081019061400c9190614b68565b63ffffffff16421415949350505050565b6000818310610b9d5782610d0d565b600081831061403b5781610d0d565b5090919050565b60008160000361405457506000919050565b600061405e612939565b6001600160a01b03166399fbab88846040518263ffffffff1660e01b815260040161408b91815260200190565b61018060405180830381865afa1580156140a9573d6000803e3d6000fd5b505050506040513d601f19601f820116820180604052508101906140cd91906147fc565b50929d9c50505050505050505050505050565b6000821580156140ee575081155b156140fb57506000612d7d565b6000614105610ab6565b90508560020b8160020b1215801561412257508460020b8160020b125b1561414657831580614132575082155b15614141576000915050612d7d565b614185565b8560020b8160020b12156141665783600003614141576000915050612d7d565b8460020b8160020b126141855782600003614185576000915050612d7d565b61418d612939565b6001600160a01b031663fe3f3be76040518061016001604052807f00000000000000000000000000000000000000000000000000000000000000006001600160a01b031681526020017f00000000000000000000000000000000000000000000000000000000000000006001600160a01b0316815260200160006001600160a01b031681526020018960020b81526020018860020b81526020018781526020018681526020016000815260200160008152602001306001600160a01b03168152602001428152506040518263ffffffff1660e01b81526004016142709190614b94565b6080604051808303816000875af115801561428f573d6000803e3d6000fd5b505050506040513d601f19601f820116820180604052508101906142b39190614c5c565b509198975050505050505050565b6060612d7d848460008585600080866001600160a01b031685876040516142e89190614c98565b60006040518083038185875af1925050503d8060008114614325576040519150601f19603f3d011682016040523d82523d6000602084013e61432a565b606091505b509150915061433b87838387614346565b979650505050505050565b606083156143b55782516000036143ae576001600160a01b0385163b6143ae5760405162461bcd60e51b815260206004820152601d60248201527f416464726573733a2063616c6c20746f206e6f6e2d636f6e74726163740000006044820152606401610799565b5081612d7d565b612d7d83838151156143ca5781518083602001fd5b8060405162461bcd60e51b81526004016107999190614479565b6001600160a01b0381168114610fb157600080fd5b6000806040838503121561440c57600080fd5b82359150602083013561441e816143e4565b809150509250929050565b60005b8381101561444457818101518382015260200161442c565b50506000910152565b60008151808452614465816020860160208601614429565b601f01601f19169290920160200192915050565b602081526000610d0d602083018461444d565b6000806040838503121561449f57600080fd5b82356144aa816143e4565b946020939093013593505050565b6000806000606084860312156144cd57600080fd5b83356144d8816143e4565b925060208401356144e8816143e4565b929592945050506040919091013590565b60006020828403121561450b57600080fd5b8135610d0d816143e4565b6000806000806060858703121561452c57600080fd5b8435935060208501359250604085013567ffffffffffffffff8082111561455257600080fd5b818701915087601f83011261456657600080fd5b81358181111561457557600080fd5b88602082850101111561458757600080fd5b95989497505060200194505050565b600080604083850312156145a957600080fd5b50508035926020909101359150565b63ffffffff81168114610fb157600080fd5b6000602082840312156145dc57600080fd5b8135610d0d816145b8565b6000602082840312156145f957600080fd5b5035919050565b60008060006060848603121561461557600080fd5b8335925060208401359150604084013561462e816143e4565b809150509250925092565b8060020b8114610fb157600080fd5b600080600080600060a0868803121561466057600080fd5b853561466b81614639565b9450602086013561467b81614639565b9350604086013561468b81614639565b9250606086013561469b81614639565b949793965091946080013592915050565b600080604083850312156146bf57600080fd5b82356146ca816143e4565b9150602083013561441e816143e4565b6000602082840312156146ec57600080fd5b5051919050565b80516146fe81614639565b919050565b805161ffff811681146146fe57600080fd5b805180151581146146fe57600080fd5b60008060008060008060c0878903121561473e57600080fd5b8651614749816143e4565b602088015190965061475a81614639565b945061476860408801614703565b9350606087015160ff8116811461477e57600080fd5b925061478c60808801614703565b915061479a60a08801614715565b90509295509295509295565b600181811c908216806147ba57607f821691505b602082108103610b9d57634e487b7160e01b600052602260045260246000fd5b80516146fe816143e4565b80516001600160801b03811681146146fe57600080fd5b6000806000806000806000806000806000806101808d8f03121561481f57600080fd5b8c516affffffffffffffffffffff8116811461483a57600080fd5b9b5061484860208e016147da565b9a5061485660408e016147da565b995061486460608e016147da565b985061487260808e016147da565b975061488060a08e016146f3565b965061488e60c08e016146f3565b955061489c60e08e016147e5565b94506101008d015193506101208d015192506148bb6101408e016147e5565b91506148ca6101608e016147e5565b90509295989b509295989b509295989b565b6000602082840312156148ee57600080fd5b610d0d82614715565b634e487b7160e01b600052601160045260246000fd5b80820180821115610c4957610c496148f7565b60006020828403121561493257600080fd5b8151610d0d81614639565b634e487b7160e01b600052601260045260246000fd5b60008260020b806149665761496661493d565b808360020b0791505092915050565b6000600160ff1b820161498a5761498a6148f7565b5060000390565b6001600160a01b038281168282160390808211156149b1576149b16148f7565b5092915050565b6001600160a01b038181168382160190808211156149b1576149b16148f7565b6001600160a01b0386811682528515156020830152604082018590528316606082015260a06080820181905260009061433b9083018461444d565b60008060408385031215614a2657600080fd5b505080516020909101519092909150565b600060a082019050825182526001600160801b03602084015116602083015260408301516040830152606083015160608301526080830151608083015292915050565b815181526020808301516001600160a01b0316908201526040808301516001600160801b0390811691830191909152606092830151169181019190915260800190565b8082028115828204841417610c4957610c496148f7565b600082614ae357614ae361493d565b500490565b600060208284031215614afa57600080fd5b8151610d0d816143e4565b600060208284031215614b1757600080fd5b610d0d826147e5565b60029490940b84526001600160801b039290921660208401526001600160a01b03908116604084015216606082015260800190565b81810381811115610c4957610c496148f7565b60008060408385031215614b7b57600080fd5b614b8483614703565b9150602083015161441e816145b8565b81516001600160a01b0316815261016081016020830151614bc060208401826001600160a01b03169052565b506040830151614bdb60408401826001600160a01b03169052565b506060830151614bf0606084018260020b9052565b506080830151614c05608084018260020b9052565b5060a083015160a083015260c083015160c083015260e083015160e083015261010080840151818401525061012080840151614c4b828501826001600160a01b03169052565b505061014092830151919092015290565b60008060008060808587031215614c7257600080fd5b84519350614c82602086016147e5565b6040860151606090960151949790965092505050565b60008251614caa818460208701614429565b919091019291505056fea2646970667358221220ae1271ac1c225d30d536c7ba709b85c30cf6352572bc437736e86d5670a1052664736f6c63430008140033",
  "linkReferences": {
    "contracts/lib/UV3Math.sol": {
      "UV3Math": [
        {
          "length": 20,
          "start": 148
        },
        {
          "length": 20,
          "start": 14578
        },
        {
          "length": 20,
          "start": 14605
        },
        {
          "length": 20,
          "start": 14893
        },
        {
          "length": 20,
          "start": 14994
        },
        {
          "length": 20,
          "start": 15021
        },
        {
          "length": 20,
          "start": 16297
        },
        {
          "length": 20,
          "start": 16429
        },
        {
          "length": 20,
          "start": 19259
        },
        {
          "length": 20,
          "start": 19484
        }
      ]
    }
  },
  "deployedLinkReferences": {
    "contracts/lib/UV3Math.sol": {
      "UV3Math": [
        {
          "length": 20,
          "start": 11397
        },
        {
          "length": 20,
          "start": 11424
        },
        {
          "length": 20,
          "start": 11712
        },
        {
          "length": 20,
          "start": 11813
        },
        {
          "length": 20,
          "start": 11840
        },
        {
          "length": 20,
          "start": 13116
        },
        {
          "length": 20,
          "start": 13248
        },
        {
          "length": 20,
          "start": 16078
        },
        {
          "length": 20,
          "start": 16303
        }
      ]
    }
  }
}